:020000040800F2
:10000000805C0020F1B300083DAD00083FAD000862
:1000100041AD000843AD000845AD000800000000F8
:1000200000000000000000000000000015A400080F
:1000300047AD000800000000BDA30008117F0008C4
:1000400075B4000879B400087DB4000881B40008D4
:1000500085B4000889B400088DB4000891B4000884
:1000600095B4000899B400089DB40008A1B4000834
:1000700049AD0008A5B400084FAD0008A9B40008B8
:10008000ADB40008B1B40008B5B4000855AD00081F
:1000900059AD000861AD0008B9B40008BDB400084E
:1000A000C1B40008C5B40008C9B40008CDB4000844
:1000B00063AD0008D1B40008D5B40008D9B4000875
:1000C000DDB40008E1B40008E5B40008E9B40008B4
:1000D000EDB40008F1B40008F5B4000869AD0008FB
:1000E000F9B40008FDB4000801B5000805B5000822
:1000F00009B500087BAD00080DB5000811B5000872
:1001000015B5000819B500081DB5000821B500088F
:1001100025B5000829B500082DB5000831B500083F
:1001200035B5000839B500083DB5000841B50008EF
:1001300045B50008000000000000000081AD000887
:1001400085AD0008A9AD000849B500084DB5000807
:1001500051B5000855B5000859B500085DB500084F
:1001600061B5000865B5000869B500086DB50008FF
:1001700071B5000875B5000800000000000000001F
:1001800079B500087DB5000840F0200070472DE9E2
:10019000F14FB0B0924604910DF142013A9A2B9181
:1001A00099464A7000200AE01AF8011B0498309A18
:1001B00090470028049000F031860D98401C0D9067
:1001C0009AF8000050B12528EED1002100220791B5
:1001D000089209910A920B910C9204E00D9800F09C
:1001E0001FBE41F001011AF8010F2028F9D0232881
:1001F0000CD02B2804D02D2805D0302809D00BE0B6
:1002000041F00201EFE741F00401ECE741F00801A1
:10021000E9E741F01001E6E72A280FD1D9F80020DC
:1002200052F8040BC9F8002000280F9003D5404273
:100230000F9041F004010AF1010A14E00F92DFF877
:10024000E83B0AE00F98984205DA00EB800402EBE5
:100250004402303A0F920AF1010A9AF80020A2F102
:1002600030000A28EED39AF800002E2803D04FF071
:10027000FF320E9229E01AF8010F2A2809D1D9F885
:10028000000050F8042BC9F800000E920AF1010A90
:100290001BE02D280CBF0AF1010A002000220E925B
:1002A000DFF8844B0BE040B90E9AA24205DA02EB6C
:1002B000820503EB4503303B0E930AF1010A9AF8DD
:1002C0000030A3F130020A2AEDD3ADF840100FF64A
:1002D0005C309AF8001000F0EBFE08B11AF8010B40
:1002E0008DF842009DF84200682805D19AF8000078
:1002F00068280CD1622106E06C2804BF9AF800003F
:100300006C2804D171218DF842100AF1010A12A85B
:1003100006901AF801BBBBF125012CD01C3900F066
:100320009481091F022940F29081133900F0A884BA
:10033000093900F08A81891E00F03D85491E00F0D0
:10034000EA84491E022940F28081091F00F0E384FB
:10035000491F00F0EF80491E00F09284491E00F012
:10036000D780C91E0CD0891E00F08A84C91E00F0F7
:10037000878400F02BBD01220792252100F023BDC8
:10038000D9F8000050F8044BC9F80000002C05947F
:1003900040F0AB802B994878002800F0A1804FF006
:1003A000FF340FF6902000F09BFE201A40F03685B7
:1003B00000F018BD01236A4602A9304600F0FEFD98
:1003C000002840F02B856D1EF4D13096079D12AFAA
:1003D00075B1309E17F8011B0498B04700280490AF
:1003E00000F01C850D98401C6D1E0D90F2D13096CA
:1003F0000A9D3021002D8DF800100CDD309E012368
:100400006A4602A9304600F0D9FD002840F0068572
:100410006D1EF4D13096059F089D75B1309E17F87A
:10042000011B0498B0470028049000F0F7840D9851
:10043000401C6D1E0D90F2D130960B9D3021002D89
:100440008DF800100CDD309E01236A4602A930466B
:1004500000F0B4FD002840F0E1846D1EF4D1309628
:1004600005980899099D471875B1309E17F8011B2A
:100470000498B0470028049000F0D0840D98401CE8
:100480006D1E0D90F2D130960C9D3021002D8DF80F
:1004900000100CDD309E01236A4602A9304600F0B0
:1004A0008DFD002840F0BA846D1EF4D130969DF881
:1004B000400041077FF584AE2020002C8DF800001D
:1004C0007FF77EAE309D01236A4602A9284600F0E0
:1004D00075FD002840F0A284641EF4D130956FE6CB
:1004E0000FF63830059000F07DBC0E9D002D04D530
:1004F000204600F015FE044607E02A46204600F09C
:1005000019FE002814BF041B2C46089400F06ABC96
:10051000D9F8001051F8040BC9F8001020F00004BD
:10052000002121F0FF35CDE9024512AB059378217A
:1005300000F03DBC2B99487820B14FF0FF340FF606
:10054000AC2030E79DF84200622860D0682817D0C0
:100550006A283FD06C2806D0712847D074282CD048
:100560007A281DD062E0D9F8001051F8040BC9F8C0
:100570000010002866D14FF0FF340FF6882012E7F4
:10058000D9F8001051F8040BC9F8001020B94FF049
:10059000FF340FF6702006E70D99018000F022BCB1
:1005A000D9F8001051F8040BC9F80010002849D1FF
:1005B0004FF0FF340FF64C20F5E6D9F8001051F853
:1005C000040BC9F8001000283CD14FF0FF340FF69F
:1005D0003420E8E6D9F8001051F8040BC9F80010EF
:1005E00080B94FF0FF340FF61C20DCE6D9F800107C
:1005F00051F8040BC9F8001020B94FF0FF340FF682
:100600000420D0E60D9AD317C0E90023EAE3D9F815
:10061000001051F8040BC9F8001020B94FF0FF3456
:100620000FF6E010BFE60D990170DBE3D9F800107A
:1006300051F8040BC9F8001020B94FF0FF340FF641
:10064000C410B0E60D990160CCE39DF842004C283F
:1006500007BFD9F80010CB1DD9F80000C31D23F047
:100660000703C9F80030D3E900010833C9F80030A6
:10067000CDE90201C80F02D007982D210AE0BDF88C
:100680004000810702D507982B2103E0C00705D55C
:100690000798202112AB1954401C079012A8079903
:1006A000DDE9024543184BF020006128059321AE97
:1006B0000BD00E98002802D506200E9005E001BF51
:1006C0004BF02000672801210E91DDE902014F0067
:1006D0007F1517F1010F0DD108030BD0ABF16102AB
:1006E00003201A2A089002D20FF634110FE00FF6F9
:1006F00034110CE017F1010F0ED109030CD1ABF14D
:10070000610203201A2A08901CD30FF6201103223D
:10071000184600F03BFD65E3DDE902016A4600F0A2
:1007200041FDCDE902014BF02000612811D105986F
:1007300030210170821C0592BBF1610F0CBF782142
:10074000582102E00FF6E001E1E741700798801CB4
:100750000790DDE9020120F0000231F0004308BFFC
:10076000002A02D10025002445E14BF02008B8F111
:10077000610F40F095800E98002847BF212101911C
:10078000401C0190019F7F1C204629460022002327
:10079000DDE9024500F03EFD38BF85F000450099D7
:1007A0008DF88420091F002F00910DF1850034DDA4
:1007B0000646204629460022002300F045FD2BD2A4
:1007C0001C2200F05BFD04460D4600F0F9FDFF1F02
:1007D000002F804609DD00F00FFE02460B46204642
:1007E000294600F0D9FE04460D46F01D0721B8F158
:1007F000000F0CDD491E5EBF08F00F0200F8012D4E
:100800004FEA2818F3D502E0002200F8012D491E16
:10081000FAD5C61D002FCCDC30460DF18501401AFB
:1008200001990DF1850605468842C8BF0D46002D89
:100830002FD4854206DA0DF18500415D0829A8BF55
:100840000F2000DA0020294621AA0A4400E06D1E8C
:1008500012F80139491E8342F9D00F2804D10DF155
:100860008500425C521C4254002904D50098001DAA
:1008700021AE6D1C0090681E0BD431180A783032FE
:10088000D3B23A2BA4BF5A443A3A401E01F8012988
:10089000F4D50E98002840F1AD80691E0E91A9E0B4
:1008A0000099DFF8082747F29750414391FBF2F295
:1008B000009225F00045C2F10702002A04DD20461F
:1008C000294600F04FFB0BE052420020DFF8E01613
:1008D00000F048FB02460B462046294600F0CEFEBB
:1008E00004460D46B8F1660F06BF009F0A3706277B
:1008F0000E983F18142FC8BF142730208DF884009D
:100900000DF1850000E03046002F35DD064620461B
:10091000294600F0D7FF01460A4606F108030420E5
:100920000A26B2FBF6F606EB860EA2EB4E0230323A
:1009300003F8012C0A22B6FBF2F202EB820EA6EBC0
:100940004E063036401E03F8026DE9D1083F002FF5
:1009500003F10806D7DD084600F0C6FF02460B4645
:100960002046294600F018FE0022DFF8483600F045
:10097000C9FF04460D46CAE70DF18501401A0DF185
:10098000850604E00099491E401E0091761C3178CE
:100990003029F7D0B8F1660F02D10099491C04E064
:1009A000B8F1650F0CBF012100210E9D4D19A84221
:1009B000B8BF451E002D1DD4854204DA705D342871
:1009C000C8BF392000DC30202946721E531800E0D1
:1009D0006D1E13F80149491E8442F9D0392802D10D
:1009E000705C401C7054002904D50098401C1646C9
:1009F0006D1C0090009C01F07BF8406A0778DDF8E0
:100A0000388028B2002802DC01250FF224664BF062
:100A10002000662808BF641C16D0672846D120B283
:100A200010F1040F48DB404546DA9DF84000641C95
:100A3000010703D428B24045D8BF804620B2B8EBA6
:100A4000000848BF4FF000080FFA84FBBBF1000F0D
:100A500000F3B5800898411C0891302205990A548A
:100A6000B8F1000F03DC9DF84000010704D5089899
:100A7000411C089105990F5418EB0B0FB8BFC8F132
:100A8000000424B26042A0442AB20B909045B8BF43
:100A90004546059B08982DB209952A4631461844CB
:100AA00000F074FBA8EB05000C90D2E0BBF1610FE5
:100AB00017D14FF0700B19E028B2404504DA9DF8C9
:100AC00040100A0758BF8046B8F1010848BF4FF0F0
:100AD0000008BBF1670F14BF4FF0450B4FF0650BDB
:100AE00004E0BBF1410F08BF4FF0500B0898411CC8
:100AF0000891B8F1000F059916F8012B0A5403DC90
:100B00009DF8400001071AD50898411C0891B8F1DA
:100B1000000F05990F5412DD6D1E28B28045B8BF35
:100B200045460598089B2AB23146184400F02EFB32
:100B300008992DB269180891A8EB05000B9005984B
:100B40000899084421B2002980F800B003D42B2270
:100B50004270821C04E02D2242700C46821C6442CA
:100B600000212CAB20460AE004460A2094FBF0F05A
:100B700000EB8005A4EB450403F8014B491C00B2CF
:100B80000028F1DC012906DC4BF02000652804BFB9
:100B9000302002F8010B00292CAB08D1302002F8DC
:100BA000010B06E0491E585C303002F8010B0029A9
:100BB000F8DC059908980844121A099249E028B20D
:100BC00021B288421CDA0598089B2AB231461844A3
:100BD00000F0DCFA08992DB269180891ABEB05001A
:100BE000B8F1000F0B9003DC9DF84000020704D51C
:100BF000059847540999491C0991CDF8308028E09F
:100C00000598089B22B23146184400F0BFFA0898B4
:100C10002D1B5844B8F1000F089003DC9DF84010DC
:100C20000A0703D5411C089105990F5428B2804545
:100C3000B8BF45460598089B2AB206EB0B0118443D
:100C400000F0A4FA08982DB228180890A8EB050027
:100C50000B909DF8400000F01400102840F0C28076
:100C6000079A08990B988A18099982180C988A187B
:100C700082180F98824280F2B580821A0A92B1E0FF
:100C80009DF84200622808D068280ED06A2814D047
:100C90006C281FD0712810D01CE0D9F8001051F832
:100CA000040BC9F80010C0B21AE0D9F8001051F8CE
:100CB000040BC9F8001080B212E0D9F80000C21D80
:100CC00022F00702C9F80020D2E900010832C9F871
:100CD000002006E0D9F8001051F8040BC9F8001004
:100CE0000021CDE902019DF8400001075AD5DDE958
:100CF0000223002B08BF002A54D04BF02000782894
:100D000050D1079812A930220A54401C431C079363
:100D100001F800B046E09DF84200622808D068283B
:100D20000ED06A2814D06C281FD0712810D01CE077
:100D3000D9F8001051F8040BC9F8001040B21AE0BD
:100D4000D9F8001051F8040BC9F8001000B212E0F5
:100D5000D9F80000C21D22F00702C9F80020D2E92C
:100D600000010832C9F8002006E0D9F8001051F857
:100D7000040BC9F80010C117CDE90201002902D502
:100D800007982D210AE0BDF84000810702D5079899
:100D90002B2103E0C00705D50798202112AA115482
:100DA000401C079012A8079901440591594602A8D2
:100DB00000F04EF816E001200790D9F8000050F836
:100DC000041BC9F800008DF848100BE00121252212
:100DD000BBF1000F07918DF8482003D00222079243
:100DE0008DF849B00F9A07980A990C9C121A089826
:100DF000521A0B99121A0998521A121A9DF84000A9
:100E0000141B41073FF5E2AA2020002C8DF80000BA
:100E10007FF7DCAA309E2546FFF7CCBA4FF0FF30B3
:100E200031B0BDE8F08F0000CBCCCC0C686A6C749C
:100E30007A4C00007072696E74665F733A2062616A
:100E40006420257320617267756D656E7400000003
:100E50002DE9FC4707468A463C6950466F2808BF83
:100E6000082505D0FFF790F9782814BF0A2510252A
:100E7000D7E900013C2680468946BAF1640F18BFC5
:100E8000BAF1690F05D1002903D5D8F1000869EB43
:100E90004909B9F1000F08BFB8F1000F0CD1386B48
:100EA00050B9082D3AD197F83800010736D53022CD
:100EB0003B2684F83B2031E08DF800A040464946AF
:100EC0002A46EB1700F01AFE3032D0B2761E3A28CE
:100ED00001960EDAA255404649462A46EB1700F025
:100EE0000DFE80465FEA010908BFB8F1000F05D189
:100EF00008E09DF800001218513AEBE7F868A119D4
:100F00008842DBD3082D09D197F83800010705D5B1
:100F1000A05D302802D0761E3020A055C6F13C02DC
:100F2000BA61A119F960386B824208DA821A3A6212
:100F30004FF6EF70398F01403987BDE8F3870028FD
:100F40000ED597F8380000F01400102808D17B6BFC
:100F50007969386A5B1A1B1A9A1A002AC8BF3A6262
:100F6000BDE8F3872DE9D04306460F4614464FF0FF
:100F70000008DFF8449012E0E00707D542464B46F0
:100F80003046394600F0BEFC06460F46404649460C
:100F900042464B4600F0B6FC641080468946002C61
:100FA000EAD130463946BDE8D0830000A086010072
:100FB0000000F03F84D7974100002440F8B5054673
:100FC0000E4617461C4600205CB117F8011BB0689E
:100FD000A847B06030B1F06A401CF0620020641E87
:100FE000F3D1F2BD4FF0FF30F2BD00007072696EB8
:100FF00074665F733A20256E20646973616C6C6F50
:10100000776564007072696E74663A20626164206C
:10101000256E20617267756D656E740000000000BA
:101020006E616E004E414E00696E6600494E46008C
:101030003000F0B40246106895681318506803EB4E
:101040005004C00748BF4D44A3422DD013F8016B94
:1010500016F0030004BF13F8010BC01C31090F295F
:1010600007D113F8011B0F3103E013F8017B05F8DA
:10107000017B401EF9D10029E6D013F8010BC6F31D
:101080008106032E08BF13F8016B00EB06204042D7
:1010900028440026B71E8F421EBF10F8017B05F8BA
:1010A000017B761CF6D1CFE7F0BC02F10C00704753
:1010B000C9B202788A421AB11CBF10F8012FF9E7B1
:1010C00018BF002070478268521C8260426832B1AB
:1010D0000268531C036011704168491E41607047EB
:1010E00080B500B906A005490B681BB1222200217A
:1010F000984701E000F085FD222002BD78580020CD
:10110000636F6E73747261696E742068616E646C73
:1011100065723A20626164206D6573736167650072
:1011200000F1010310F8011B11B110F8011BFBE7DE
:10113000C01A7047C9B2830706D0521E22D310F8D6
:10114000013B9942F7D11FE0083A13D302F10402A0
:1011500041EA012141EA014150F8043B121F21BF3D
:101160004B40A3F1013C2CEA030C1CF0803FF3D070
:10117000C9B2001F083210F8013B521E28BF91EA85
:10118000030FF8D818BF0120401E70474AB1000075
:1011900011F8013B521E00F8013B1CBF11F8013B46
:1011A000F8E7704710B5144600F002F8226010BD51
:1011B000C1F30A5343B14A0012F5001F28D2A3F22B
:1011C000FE32A1EB0251704750EA410C20D001F0F1
:1011D000004C31EA0C01B1FA81F204BFB0FA80F39D
:1011E000D2180B3AB2F120032CBF00FA03F1914060
:1011F00041EA0C013EBFC2F1200C20FA0CF3194366
:101200009040524240F2FD33D21A01EB0351704735
:101210000022704741EA030C50EA4C0C52EA0C0CD5
:101220004FF4001C09D307D01CEB410F9CBF1CEBF3
:10123000430F8B4208BF824270471CEB430FFBD821
:10124000994208BF9042704741EA030C50EA4C0CA7
:1012500052EA0C0C4FF4001C09D307D01CEB410FD1
:101260009CBF1CEB430F994208BF904270471CEB98
:10127000410FFBD88B4208BF82427047124254D4C0
:1012800040F2FF7C1CEA11530FD0634531D09B180C
:1012900063453CBF01EB0251704701F0004141EA58
:1012A0000C510020AFF30080704750EA410320D07A
:1012B00001F0004C91EA0C011CD0B1FA81F30B3B18
:1012C0009A420DD9D21A994051EA0C01C3F1200C6F
:1012D00020FA0CFC61449840531C40F2FF7CD7E795
:1012E000914041EA0C01C2F1200C20FA0CF31943A1
:1012F00090407047B0FA80F31533202BE0D3202ABA
:10130000EED3203A203B9A4209D9D21A00FA03F1CF
:1013100041EA0C010020531C40F2FF7CB8E700FAC0
:1013200002F141EA0C0100207047524240F2FF7C7A
:101330001CEA11530DD06345DBD0B2EB030C3CBF6C
:10134000A1EB025170470CF1010221EA035141F473
:10135000801150EA410CCCD001F0004C352A27DC3A
:1013600030B481EA0C01B2F1200309DAC2F12003A2
:10137000044601FA03F5D0402843D1409C400CE0DC
:10138000C3F12002450020FA03F418BF44F0010421
:1013900021FA03F091400C43002174F1004550F113
:1013A000000051EB0C01244230BC7FF47BAF70474E
:1013B0006146002076E70268531C03601170704795
:1013C000C1F30A5340F21E42D31A0CDDCA0283F362
:1013D000070342EA505242F00042DA4002EBE17267
:1013E00082EAE17070476FEAE17203F2E13008B11E
:1013F00082F0004070472E0010F0004160B148BFFD
:101400004042B0FA80F29040D21CC2F5846241EAB8
:10141000025202EBD02140057047430070B491EABC
:10142000030F4FF0004540F1BF806B40841A71EB11
:10143000030604D26E40001BB141121973414FF4F0
:10144000001C1CEB410F34BF7CEB430683E00C0D0A
:10145000A4EB1356362E00F37C80012E45EAC323FD
:1014600041DC43EA525312BFD20292025B082405C8
:1014700045EAC12141EA5051D2EBC020994125D41F
:1014800007D1B0FA80F610FA06F162D000202036BB
:1014900008E0B1FA81F6B140C6F1200220FA02F26A
:1014A0001143B0404FEAF474B4EB465434F00106F3
:1014B0004FEA74040AD8D6F50016760D04F00044FD
:1014C000F04061FA06F25040F1404840C00A40EA5C
:1014D000415021F0004128BF5FEA500550F1000063
:1014E00044EBD12135E0DB0A45EAC121C90AB6F156
:1014F00020050EDD42EA0242120CC5F1200603FA75
:1015000006F6EB4042EA06056D42984161F10001A2
:101510000DE062FA06F5F240554063FA06FC82EAF5
:101520000C02F3405A406D42904161EB030111F40B
:10153000801F05D1641E620502D06D004041494103
:1015400021F48011430875F1004350F1000041EB94
:10155000045170BC70471CEB410F15D223F00043BF
:1015600052EA43060BD04FEA4C0CBCEB410F04D8B7
:101570000C0D661E342EB7DDEBE7801A994150EA58
:10158000410608BF0021E4E708BF1CEB430F28BF5A
:101590006FF00001DDE7000070B491EA030F4FF037
:1015A00000457FF543AF6B40841A71EB030603D20D
:1015B000001BB141121973414FF4001C1CEB410F89
:1015C00034BF7CEB430442E00C0DA4EB1356352EE4
:1015D0004FDC45EAC323DB0A45EAC121C912B6F153
:1015E00020050DDD63FA05F6EB4086EA030512429D
:1015F00018BF45F00105C01851F100010CD213E0ED
:1016000062FA06F5F2405540F3415A40B340F340C8
:101610005A408018594107D349085FEA30005FEA11
:10162000350528BF45F0010501F58011420875F127
:10163000004250F1000041EB04514E0016F5001F2E
:1016400070BC38BF70470020090D090570471CEBBE
:10165000410F10D252EA43060BD0BCEB410F05D824
:101660000C0DAB43661E342EB6DD02E0AB43801892
:10167000594170BC704770BC70470000F0B540F233
:10168000FF7581EA030C0CF0004C15EA11541DBFE4
:1016900015EA1357AC42AF42E5E0BC41C1F3130178
:1016A000C3F31303801A994143F4801304D2641ED8
:1016B0000018494180185941C90241EA5051B1FB13
:1016C000F3F603FB1611A2FB0675D7EBC020A94168
:1016D00002D2761E80185941C90241EA5051B1FB2D
:1016E000F3FE03FB1E11A2FB0E75D7EBC020A94130
:1016F00003D2AEF1010E80185941890241EA90519E
:10170000760546EA8E2EB1FBF3F603FB1611A2FB1B
:101710000675D7EB8020A94102D2761E8018594168
:10172000C90241EA50514EEA060EB1FBF3F603FB43
:101730001611A2FB0675D7EBC020A94102D2761E76
:1017400080185941C90241EA5051B1FBF3F703FB3C
:101750001711A2FB0735D3EBC020A94167F10007A1
:101760000CBF004247F0010766F3D5274FEA1E3150
:10177000B80814F5806412DDBD0775F1004250EB26
:101780000E5051EB045111F5801F5CBF41EA0C0172
:10179000F0BD4CF07F6141F0E0410020F0BDBD079D
:1017A0006D0840EA0E5041F48011D4F10104B4F107
:1017B00020060ADAC4F120060200E04001FA06F32E
:1017C000E1401843B24015430EE0342C13DCC6F15F
:1017D000200445EA40056D0820FA06F2154321FA77
:1017E00006F0A1400D43002175F1004250F10000C8
:1017F00051EB0C01F0BD00205FEA0C01F0BDCFB948
:1018000092185B41B3FA83F704BFB2FA82F6BF19AC
:101810000B3FB7F120062FBF02FA06F3BB40C7F11A
:10182000200622FA06F638BF3343BA401CB1E41949
:10183000641E33E77F4231F00041B1FA81F404BF06
:10184000B0FA80F6A4190B3CB4F120062FBF00FAC1
:1018500006F1A140C4F1200620FA06F638BF314354
:10186000A0403C1B1AE7AC421ABF05EA1357AF422F
:1018700012E050EA41061CBF52EA4306BFE750EAB5
:101880004107304661461CBF41EA0551F0BD52EAAE
:10189000430C08BFC143F0BD00204FF4001616EB07
:1018A000410F98BF16EB430F08BF16EB410F24BF43
:1018B000C14305E016EB430F0CBF61464CEA0551EE
:1018C000F0BD0000400D40F21E4C40EAC120BCEBD0
:1018D000115C40F0004003D48CF30701C84070470E
:1018E0006FEAE1707047000050B1B0FA80F18840B3
:1018F000C91CC1F58461090501EBD0214005704781
:101900000146704730B540F2FF7C1CEA11541DBF00
:101910001CEA1355644565453FE0641981EA030CF0
:101920006FF35F530CF0004C43F48013C90241F095
:10193000004141EA505EC5021100A5FB02020028E9
:101940004FF00000EEFB01204FF00001E3FB05210A
:1019500018BF42F00102401800214941E3FB0E018B
:10196000A4F580640D0302D292184041494154F11C
:10197000010470DD450872F1004250F1000051EBA6
:101980000451A1F5801102D441EA0C0130BD40F2AE
:10199000FF7E4CEA0E51002030BD0CEA1355644521
:1019A00018BF654581EA030C0CF0004C41D050EAA9
:1019B000410E1CBF52EA430E02E06146002030BDDA
:1019C00024422C441BD15FEA050EF6D0090302BF66
:1019D00001460020AEF1140EB1FA81F5AEEB05041C
:1019E00001FA05FE0C35C5F1200100FA05F5C840E5
:1019F0004EEA000E6FF35F5343F480139CE733F01D
:101A00000043B3FA83F504BFB2FA82FE75440B3D7E
:101A1000641BB5F1200E2FBF02FA0EF3AB40C5F1E7
:101A2000200E22FA0EFE38BF43EA0E03AA40641CC1
:101A30007CE750EA410E14BF52EA430E6FF00001FA
:101A40004FF4001515EB430F8EBF194615EB410FF0
:101A50009DE7B4D830BDD4F10104B4F120050FDA0C
:101A6000C4F12005520828BF42F0010210FA05FE19
:101A700001FA05F57244E2BFE0402843E1400FE07F
:101A8000352C9ADCC5F1200452EA400220FA05F216
:101A900018BF42F0010231FA05F0A1400A430021CB
:101AA00072F1004250F1000051EB0C0130BD00001A
:101AB000613807E005E0A0F161011A2901D2012097
:101AC000704741381A288041C00F7047A0F10901C2
:101AD000052901D3202801D101207047002070473B
:101AE000A0F141011A2938BF2030704701487047E2
:101AF000014870475001002018010020D3BBD9B124
:101B0000B2F5803F5BD2022A1ED98C46B1FBF2F1BE
:101B100002FB11C31B0443EA1043B3FBF2FC02FBBC
:101B20001C3380B240EA0343B3FBF2F002FB1032F5
:101B300040EA0C4000237047022A05D98446B0FBD6
:101B4000F2F002FB10C270474AB105D100F0010269
:101B500049085FEA3000704700220023704700F018
:101B600053B80B000200002100207047F7D3002279
:101B700000237047904271EB030CF2D370B5B1FAB9
:101B800081F4B3FA83F52C1BA340C4F1200532FA8B
:101B900005F63343A2405FF00046E64002E05B08F2
:101BA0005FEA3202841A71EB030524BF20462946FE
:101BB0007641F4D302000B003000002170BD70B5F7
:101BC000B1FA81F4B2FA82F5C4F120046419B4F1D7
:101BD0002006DAD3B2405FF00044F440002502E072
:101BE00052085FEA3303C61A71EB020E24BF304677
:101BF000714664416D41F3D302000B0020002900BF
:101C000070BD012000F002B87047000080B5AFF34E
:101C10000080024A11001820ABBEFBE7260002003C
:101C200038B52DED028B0C4686B000F0B4F9451E98
:101C3000A06800F00AFE00F06EF800F059F800F01D
:101C40006AF800F050F800F066F800F05CF880EDFB
:101C5000168AC0ED188A80ED170A10EE100A00F0FF
:101C6000F9FD00F04AF800F006F8CDE900012A4637
:101C7000DFF848172FE0CDE9020118EE100A00F056
:101C8000E9BD38B52DED028B0C4686B000F083F926
:101C9000451EA06800F0D9FD00F03DF800F028F8DE
:101CA00000F039F800F01FF800F035F800F02BF8DC
:101CB00080ED098AC0ED0B8A80ED0A0A10EE100A49
:101CC00000F0C8FD00F019F8FFF7D5FFCDE90001DD
:101CD0002A46DFF8EC16DFF8EC0600F0D5FE06B079
:101CE000BDEC028B31BD08EE900A206900F0ADBD5D
:101CF00008EE100AE06800F0A8BDCDE9040118EE76
:101D0000900A00F0A7BD00EE100AAC21DFF8B8067B
:101D100069430844704751EC100B00F0C1BF0FF24B
:101D20005071DFF8A00600F0AFBE2DE9F041044687
:101D30000D460126DFF88C760FF2487806E055F85C
:101D400026204146384600F09FFE761CA642F6DB70
:101D5000BDE8F0812DE9F04704460D4601260FF25B
:101D6000487ADFF860860FF2287911E000F036F843
:101D7000781E00F0C9FF0AE055F8260001F0E5F9E9
:101D80000746052F3A46F1D3494600F028F8761C5D
:101D9000A642F1DBBDE8F0872DE9F04704460D4689
:101DA00001260FF2147ADFF81C860FF2E46911E0C5
:101DB00000F014F8781E00F0BFFF0AE055F8260086
:101DC00001F0C3F90746052F3A46F1D3494600F022
:101DD00006F8761CA642F1DBBDE8F0875146404686
:101DE00000F052BE70B50228DFF8D845DFF8DC55A8
:101DF00000D029E000F06DF80646052E02D300F071
:101E000064F805E0701E00F09EFF324605F12801DF
:101E100015E070B50228DFF8AC45DFF8B45500D006
:101E200012E000F056F80646052E02D300F04DF8F9
:101E300005E0701E01F00CF8324605F12C01204639
:101E4000BDE8704000F020BE29462046BDE8704045
:101E500000F01ABEF8B500F0C1F8DFF8786502D0DE
:101E60003146284660E100F096F8074600F0BCF8DD
:101E7000052F044604D33A462846BDE8F840BAE0A8
:101E80002146781E00F073FF23463A4606F13001E2
:101E9000284601B0BDE8F04000F0F6BD70B502285C
:101EA000DFF82045DFF8305500D0CDE700F011F81D
:101EB0000646052E02D300F008F805E0701E00F07B
:101EC000A6FF324605F12801B9E732460FF2C051AC
:101ED0007047486801F039B9F8B50D46DFF8E444B9
:101EE000042818BF0FF2E45128D1686801F02DF9D9
:101EF0000646A86801F029F90746E86800F0A5FC45
:101F0000FFF709FF052E00EE100A02D3FFF7DDFFF1
:101F10001CE0F0EEC00A9FEDA71AF4EE410AF1EEC4
:101F200010FAA8BF0FF2B85108DA380048BF404293
:101F300040F2F511884202DB0FF2BC51F3E0394662
:101F4000701E00F0A1FF3246DFF890142046BDE875
:101F5000F84000F099BD70B500F040F806D0284672
:101F6000BDE87040DFF8781400F08EBD00F013F883
:101F700000F039F8052E044600D338E02146701EE3
:101F800000F0C0FF234632462846BDE870400FF2FD
:101F9000845100F079BD606801F0D7B870B500F0E9
:101FA0001DF806D02846BDE87040DFF8381400F070
:101FB0006BBDFFF7F0FF00F016F8052E044600D3C6
:101FC00015E02146701E00F0B3FF23463246284636
:101FD000BDE870400FF25C5100F056BD03280C467E
:101FE000DFF8E05370470646A06801F0AEB832460D
:101FF0002846BDE870400FF2984100F045BD70B52D
:10200000FFF7ECFF06D02846BDE87040DFF8D81394
:1020100000F03ABDFFF7BFFFFFF7E5FF052E0446CE
:1020200000D3E4E72146701E00F09EFF23463246AF
:102030002846BDE870400FF21C5100F025BD10B5D8
:10204000DFF88043022818BFDFF8A0130ED1FFF796
:1020500040FF0246052A28BF0FF234410DD2DFF8B7
:1020600090030260100006D10FF208512046BDE82F
:10207000104000F009BD0FF210512046BDE810409D
:1020800000F002BDF8B52DED048B022884B0CD4CD4
:10209000DFF8605304D004B02946BDEC048B42E065
:1020A000FFF717FF0646052E07D304B03246BDECF6
:1020B000048B2046BDE8F8409DE7771E384600F0C7
:1020C0006DFFB0EE408A384600F07AFFF0EE408AAD
:1020D000384600F06AFFC848C8493044314410F817
:1020E000013C11F8012CB0EE409A05F12801204680
:1020F00000F0CAFC19EE100A00F0ACFBCDE90201B9
:1021000018EE900A00F0A6FBCDE90001FFF7B5FD3F
:1021100002460B460FF28C41204600F0B5FC04B09D
:10212000BDEC048BF1BD2046BDE8F44000F0ACBC32
:1021300070B503280D46A34C07DCB14D2946204657
:1021400000F0A2FC05F188017FE6686800F0FDFF61
:102150000646052E02D3FFF7B8FE16E0A86800F089
:10216000F4FF0246501E032828BF0FF254410CD240
:10217000A248304400F8012CE86800F0E6FF411E58
:10218000052903D302460FF2544158E69A493144D7
:10219000032801F8010C07D1286900F0D6FF9949FE
:1021A00001EB860242F8040C00F0D6FFBDE8704057
:1021B00001F0C7B80100E040FEB500F040F81BDBBD
:1021C00000F043F80746706801788F48732908D1FA
:1021D0006B463A46002101F0B5FD3A460FF2184130
:1021E00009E0652908D16B463A46042101F0AAFDB1
:1021F0003A460FF2184131E034E0FEB500F01FF826
:102200001CDB00F022F8074670680078732809D1BB
:102210006B463A4600217D4801F094FD3A460FF2A4
:10222000D8310AE0652809D16B463A460421764840
:1022300001F088FD3A460FF2D4310FE012E0032896
:102240000E460FF2DC345F4D704771490091002358
:1022500001931022B068002101F0F4BE284600F07E
:1022600013FCF7BD2146284600F00EFCF7BD38B53B
:1022700001F097FF534C0FF2B831664D02462046ED
:1022800000F002FC6449204600F0FEFB284602F004
:10229000B3FC29462046BDE8344000F0F5BB10B53C
:1022A0005E4A0FF2A8310FF29C305D4C02F0D4FD73
:1022B0005C4A0FF2B4310FF2A83002F0CDFD5A4A59
:1022C0000FF2B430214602F0C7FD584A0FF2B03089
:1022D00004F1240102F0C0FD554A0FF2B8310FF2AB
:1022E000AC3002F0B9FD534A0FF2C8310FF2B830EA
:1022F00002F0B2FD504A0FF2DC310FF2D03002F0A2
:10230000ABFD4E4A0FF2F0310FF2E43002F0A4FDC3
:102310004B4A0FF200410FF2F43002F09DFD494AA2
:102320000FF218410FF20C4002F096FD464A0FF2F0
:102330002C410FF2204002F08FFD444A0FF23C4145
:102340000FF2304002F088FD414A0FF254410FF283
:10235000444002F081FD3F4A0FF260410FF25440C9
:1023600002F07AFD3C4A0FF2644004F14C0102F0A5
:1023700073FD3A4A0FF2604004F5A47102F06CFD5F
:10238000374A0FF2604004F5B67102F065FD354A38
:102390000FF264410FF2584002F05EFD324A0FF234
:1023A00078410FF2684002F057FDBDE810402F4A17
:1023B0000FF280410FF2744002F04EBD78B0000879
:1023C000B0B0000828570020244B0020C8AE0008F9
:1023D00010AE0008ACAD000818AF0008DCB1000872
:1023E00020B1000850B1000880B1000804B0000816
:1023F000B0550020B8AF0008DC000020D800002055
:1024000010AB0008E0000020A0570020C8570020B3
:1024100050580040E452002004B200081F1D00087C
:1024200080A900082B1D0008551D0008991D0008F3
:10243000E51D0008131E0008551E00089D1E00081B
:10244000D91E0008571F00089D1F0008FF1F000825
:102450003F2000088520000831210008211C0008C9
:10246000831C0008B9210008FB2100086F22000826
:1024700048656C6C6F2053696D706C654C696221A6
:102480000D0A00004563686F3A2025730D0A0000AD
:10249000696C6C6567616C206D6F746F7249642044
:1024A0005B25645D0D0A00006D6F746F72256420FA
:1024B0006973206F6E0D0A006D6F746F7225642052
:1024C0006973206F66660D0A00000000506172613A
:1024D0006D206E756D206973206572726F720000D9
:1024E00063757220697320746F6F2068756765214A
:1024F000283C2033290D0A0076656C20697320740E
:102500006F6F206875676521283C20353030290DB4
:102510000A0000006D6F746F72256427732073705A
:102520006565642069732073657420746F20256469
:102530000D0A00006D6F746F722564277320706F31
:10254000732069732073657420746F2025640D0AED
:10255000000000006D6F746F72256427732063752F
:10256000722069732073657420746F2025640D0ACE
:102570000000000073746F702073656E64696E678D
:1025800020776176650000006D6F746F722564209E
:10259000737461727420746F2073656E64776176F2
:1025A0006500000076656C3D25660D0A20706F732E
:1025B0003D25660D0A206375723D25660D0A0000F3
:1025C000696C6C6567616C206D6F746F72547970A3
:1025D00065205B25645D0D0A00000000696C6C6578
:1025E00067616C20636F6E74726F6C4D6F646520F1
:1025F0005B25645D0D0A000043616E53656E643AAD
:102600007374645B25785D0D0A00000043616E53AE
:10261000656E643A6578745B25785D0D0A0000008C
:10262000506172616D204572726F72210D0A000057
:102630004672656520486561703A202564420D0A3E
:102640000000000068656C6C6F0000002248656C3B
:102650006C6F2053696D706C654C696221220000BB
:102660006563686F000000004563686F206D6573E7
:1026700073616765000000006D6F746F726F6E00AC
:102680006D6F746F726F66660000000076656C6334
:102690006667000076656C636667203C6D6F746FDB
:1026A0007269643E000000006C696D697476656C47
:1026B000636667006C696D697476656C6366672034
:1026C0003C6D6F746F7269643E000000706F7363DD
:1026D00066670000706F73636667203C6D6F746F90
:1026E0007269643E203C706F7356656C3E0000005A
:1026F0006375726366670000637572636667203C8A
:102700006D6F746F7269643E00000000686F6D69E0
:102710006E670000686F6D696E67203C6D6F746F47
:102720007269643E203C76656C3E203C6375723E67
:102730000000000076656C6374726C0076656C63F3
:1027400074726C203C6D6F746F7269643E203C76CD
:10275000656C3E00706F736374726C00706F7363AE
:1027600074726C203C6D6F746F7269643E203C70B3
:102770006F733E006375726374726C00637572638D
:1027800074726C203C6D6F746F7269643E203C63A0
:1027900075723E0073656E647761766500000000B7
:1027A00073656E6477617665203C6D6F746F7269D6
:1027B000643E0000696E666F00000000696E666F1F
:1027C000203C6D6F746F7269643E00007365746DB8
:1027D0006F746F7200000000736574706F737069BE
:1027E0006400000073657476656C706964000000B5
:1027F00063616E73656E640043414E312073656E94
:1028000064206D65737361676500000063616E73BA
:10281000656E64320000000043414E322073656EE5
:1028200064206D6573736167650000007461736B8C
:102830007300000053686F77207461736B206C69BC
:102840007374000041EC100B01BD80B502F01EFD59
:10285000F8E70000C0F3C75181B1FF2906D0C110CD
:10286000400721F0E04101F16051704741020CBF87
:1028700040F4E0016FF000410020704700F000419B
:1028800000020AD0B0FA80FC00FA0CF001F16051AD
:10289000A1EB0C5101EBD0214005704710B5006849
:1028A000C14A90429AA410D10FF2083100F0CBF83F
:1028B0000FF2083100F0C7F8214600F0C4F8BB4819
:1028C000006CBDE8104002F0C2BE00F0BBF80FF291
:1028D000003100F0B8F82146BDE81040AEE000003D
:1028E000F8B50446B0492068884205D1AF4A106C5B
:1028F00002F0ADFEA9A500E0A9A5E06BB8A7C1074D
:1029000083A609D5394600F09EF82A46B6A100F004
:1029100002F9314600F097F8E06B81070AD5394695
:1029200000F091F84FEA0502B5A100F0F4F8314645
:1029300000F089F8E06B41070AD5394600F083F8CA
:102940004FEA0502B3A100F0E6F8314600F07BF84B
:10295000E06B01070AD5394600F075F84FEA050229
:10296000B1A100F0D8F8314600F06DF8E06BC10677
:1029700009D5394600F067F84FEA0502B0A100F02A
:10298000CAF8314658E0F1BDF8B50546864A2868D0
:1029900090425FA449D100BF86A1844E00F053F855
:1029A000AEA100F050F8214600F04DF80021009152
:1029B00006F5A4772A681368009328684168009197
:1029C000009829684A69084622F040024261686B13
:1029D00002F0E3FF2868C16821F49071C1602868A3
:1029E0004169490849004161202085F83A00686B37
:1029F00001684C68C4F13F0484B122463946304630
:102A0000FEF7C4FB002030553F223946284603F02C
:102A100098F9706CBDE8F24002F019BE39462846BC
:102A2000BDE8F8403F2203F08CB900F00BF800BF7E
:102A300067A100F008F82146BDE8F440002003F04B
:102A400058BD000060A1002003F053BD10B500BFC9
:102A50008BA201210120554C02F072FD206400215F
:102A60008BA2012002F06CFD606451480168CA68C5
:102A700042F01002CA6004F5A4713F2203F061F92C
:102A8000BDE8104002F0D0B90CB4F8B50446464A8F
:102A90002068464F90420D461DA62CD1386C4FF051
:102AA000FF3102F0A5FD0028F8D1206B03F0A4F857
:102AB000022803D1012002F089FCF6E706AB2A4682
:102AC0004FF4807107F1480003F026FD0546FF2D05
:102AD0000ADD00BF42A1FFF7B6FF2A4600F01AF850
:102AE0003146FFF7B0FFFF25AAB207F148012046A3
:102AF00003F0EBF808E0FFF7A5FF00BF34A1FFF7F4
:102B0000A2FF3146FFF79FFFF1BC5DF80CFB000010
:102B10000A00000054A1002003F0EBBC2DE9F041B5
:102B2000044616462068204A204D904288461DA73C
:102B30002AD1286C4FF0FF3102F05AFD0028F8D15D
:102B4000206B03F059F8022803D1012002F03EFC6B
:102B5000F6E7FF2E0AD900BF21A1FFF774FF324626
:102B6000FFF7D8FF3946FFF76EFFFF263246414692
:102B700005F14800FEF70AFBB2B205F14801204614
:102B8000BDE8F04103F0A1B8FFF75CFF10A1FFF72B
:102B90005AFF3946BDE8F04150E70000330000001D
:102BA0003F0000000A0000000048004030500020B4
:102BB000285700205B44656275675D00554152549B
:102BC000333A2054780000005B4572726F725D00EA
:102BD000556E6B6E6F776E205541525400000000A9
:102BE0005B5761726E5D20005541525425733A2047
:102BF000506172697479204572726F720000000032
:102C00005541525425733A204E6F697365204572C1
:102C1000726F72005541525425733A204672616DAD
:102C200065204572726F72005541525425733A20E7
:102C30004F76657272756E204572726F7200000079
:102C40005541525425733A20444D41207472616EAF
:102C500073666572204572726F720000554152545E
:102C6000333A205278000000554152543A205478AB
:102C700020546F6F206C6F6E673A2564000000006F
:102C800048B4000800000000000000000000000040
:102C900054B4000800000000000000000000000024
:102CA00001F000428B1AA3F16051B1F5801F0ADBDD
:102CB000B1F17F6F1FD242EAC102C10071F1004140
:102CC00042EB507070470B15C3F10903212B10D252
:102CD000890241EA905180020128494141F00041B6
:102CE00021FA03F0C3F12003994071F100415041F2
:102CF0007047100070476FF0000013EB103F5CBF8F
:102D0000000E42EAC050704710B500F00BF9206881
:102D1000032804BFE06C20652168022904BF00215C
:102D2000616104F1240003F051FC04F1580003F048
:102D30004DFC0120207310BDAC21A64B4843184424
:102D400000220273704710B500F075F804D102211B
:102D500000F06EFA78E010BD022902D100F087FA87
:102D6000F8E70329F7D1022100F0C5FAF2E770B5C0
:102D70000D460446AC219748974A61434618105DBA
:102D800001280ED10321304600F052FA00EE105A0D
:102D9000B8EEC00A86ED150A2046BDE87040B3E7DC
:102DA00070BD022804D10321304600F060FAEDE73F
:102DB0000328F5D10321304600F09DFAE6E738B547
:102DC000044685482DED028B025D012A1CD108EED8
:102DD000101AAC217F486143451803222A60002065
:102DE000EA6C286168612A6505F1580003F0EEFB82
:102DF00005F1240003F0EAFBB8EEC80A85ED150AD8
:102E00002046BDEC028B3CE0BDEC028B31BD10B521
:102E100000F011F803D100F00BFA15E010BD022903
:102E200003D1012100F023FAF7E70329F6D10121AC
:102E300000F061FAF1E70446AC216648664A614356
:102E40000844115D012970472046BDE810405BE74A
:102E500038B504466048015D012911D1AC206043BA
:102E60005C4905220A500D180021696105F15800DE
:102E700003F0ACFB05F1240003F0A8FB204600E0C2
:102E800031BDBDE832403FE7F8B52DED028B044679
:102E9000B0EE408A82B008EE901A18EE100AFFF7E2
:102EA000D9FCCDE9000118EE903A22464B494C4836
:102EB000FFF7EAFD4848005D01281CBF02280328EF
:102EC0001CD1AC256543434E771907F1580003F038
:102ED0007DFB07F1240003F079FB04207051B8EE6C
:102EE000E80A07F18C0080ED018A80ED000A02B04B
:102EF0002046BDEC028BBDE8F24005E702B0BDEC18
:102F0000028BF1BD10B500EE101A00F00BF8B8EE10
:102F1000C00A84ED050AD4ED060A00F07BFC84EDBE
:102F2000050A10BDAC212B4A484314187047000015
:102F300010B52DED028B044608EE101A18EE103A6B
:102F40004FEA040228A12648FFF79EFDAC20214944
:102F500044430819B8EEC80A012280ED140AC2677A
:102F6000BDEC028B10BD000000EE101A10B5AC21B4
:102F7000184A4843104400F18004B8EEC00ADFED5F
:102F8000140AC0EE200AC4ED010AD4ED000A94ED43
:102F9000010A00F03FFC84ED010A10BDAC210D4A8E
:102FA0004843104490ED040A704714210D4A4843E9
:102FB0001044B0F9103000EE103AB8EEC00A704775
:102FC000AC21044A4843104490ED130A70470000B6
:102FD00000007A44244B0020D800002054B200089E
:102FE0002857002040550020706F736374726C2066
:102FF0006E756D203D2025642C20706F73203D2060
:1030000025640D0A000000002DE9F84F84B00E463B
:1030100017460BB100221A600446A04601E008F1F1
:10302000010898F8000003F0D6FA0028F7D198F8C4
:1030300000002D2816BF2B2818F8015B2B25002F28
:10304000019603D4012F01D0252F03DB002E55D08C
:10305000346053E0002F0CDD102F04BF98F80000FF
:10306000302802BF98F8010040F02000782811D1E4
:103070000CE098F80000302818BF0A270AD198F809
:10308000010040F02000782803D1102708F1020841
:1030900000E00827CDF80C8001E008F1010898F85D
:1030A00000003028F9D0064E7E4414364FF0000957
:1030B00006F12800CDF80880CA468DF800000BE024
:1030C000A87E00009DF80010401ACA465FFA80FBF7
:1030D00007FB09B908F1010898F8000003F085FA28
:1030E00001463A4606F12800FEF724F80028E9D107
:1030F0000399414504D1019800B10460002020E00B
:103100000299F05DA8EB0101081A002810D406DC32
:10311000B9EB0B0103D3B1FBF7F0504508D0AFF387
:103120000080049808B1012101604FF0FF3903E0ED
:103130002D2D08BFC9F10009019808B1C0F8008021
:10314000484605B0BDE8F08F03E0FFE70A22002102
:10315000FAE7002358E7000070B586B003F087FA5D
:10316000002101910522039201210491022205927E
:10317000694601A803F034FB20B103F088FA4FF050
:10318000FF3027E00025264C264E725D002304EB1D
:10319000850100F022F86D1C042DF6DB224E00257F
:1031A00004EB8500725D00F1100100F015F86D1C54
:1031B000042DF5DB00251D4E04EB850056F8252077
:1031C00000F1200100F008F86D1C042DF4DB03F081
:1031D0005EFA002006B070BD0023022003F010BA92
:1031E00010B500200F490E4A52F820300B54401CF5
:1031F0000428F9DB0C49002002EB80031C690C5405
:10320000401C0428F8DB0020084902EB80031C6AFC
:1032100041F82040401C0428F7DB002010BD0000CE
:1032200000000208D8000020DC000020E0000020A0
:1032300038B500F03CF800F052F8256004F12400A5
:103240000FF260612022FDF7A1FFDFF880050FF289
:103250007461A061B3EE020A00F022F800F02EF8CB
:10326000DFF88805DFF88815E061216231BD38B5E7
:1032700000F01DF800F033F8256004F124000FF28F
:1032800064612022FDF782FFDFF840050FF27461D0
:10329000A061B2EE000A00F003F800F00FF831BDB3
:1032A00084ED120A04F158002022FDF76FBF044696
:1032B0000D46342104F14C0003F040BB04F18C00B6
:1032C00084ED200A4FF07E5141604FF40051DFF849
:1032D0002425DFF82435626503604161704704F1FD
:1032E000800000210022002380E80E003C2104F130
:1032F000100003F023BB38B5FFF7D9FFFFF7EFFF4E
:10330000256004F124000FF21C612022FDF73EFF2E
:10331000DFF8B8040FF22C61A061B3EE0E0AFFF7DC
:10332000BFFF04F18C0084ED200A4FF07E51416014
:1033300084ED150A4FF40053DFF8BC2402604361AA
:1033400031BD2DE9F041FFF74BFF0026DFF8AC540B
:103350000FF2E447DFF8A844A35D324600F05BF8C3
:10336000761C042EF8DB0FF2E8470026201D3246BB
:10337000835D00F050F8761C042EF7DB00260FF278
:10338000EC4704F10800324650F8263000F043F8CC
:10339000761C042EF5DBDFF86C840026AC21DFF808
:1033A00068047143084400F15407751C7D651423BB
:1033B000A15D08F1080273430129D15419D1A11963
:1033C0000979FFF735FF3046FFF79EFCA019007919
:1033D000032809D104F1080101EB860090ED000AF1
:1033E000B8EEC00A87ED000A2E46042ED6DBBDE8F3
:1033F000F081022904D1A1190979FFF738FFE2E72A
:10340000032904D1A1190979FFF775FFDBE73046DD
:10341000FFF792FCE8E739462846FFF735BB000086
:103420002DE9F843DFF8E453DFF8DC932868DFF890
:10343000D4634FF0FF3102F02CF800274FF0AC08B6
:10344000142404FB07F006F108010A5CFF2A05D0EA
:10345000311808FB07F0484400F0A2F87F1C042F45
:10346000EFDB286802F045F8002706F1080004FBAE
:1034700007F1425CFF2A2DD008FB07F009EB00059D
:10348000287B012818BF002016D12968491E04296D
:1034900020D8DFE801F00F0A03131700394605F1C1
:1034A0004C0000F0ABF885ED050A05F1100000F0C6
:1034B000CCF80DE0D5F88400A8600BE0284600F0B9
:1034C00039F905E095ED130A05F1100000F0C6F892
:1034D00085ED020A7F1C042FC7DB002106F10800DE
:1034E00004FB01F208FB01F3825C012A06EB810078
:1034F00009D109F108021A44DFEDB30A00F04AF8D5
:10350000B3EE041A16E0022A09D109F108021A449E
:10351000DFEDAE0A00F03EF8B2EE041A0AE0032A2C
:103520000DD109F108021A44DFEDA90A00F032F8C2
:10353000B3EE0E1A80EE811A80ED181A01E0002217
:103540000266491C0429C9DB06F1600003F07BFA1E
:10355000756F306F6D1CD0B1142195FBF1F104FB38
:103560001154A4B908FB00F209EB020151F89C2D9B
:10357000326506F15C02CB6B73654968B165042165
:1035800052F82000F06506F1500003F0A5FB7567C6
:10359000BDE8F18392ED000A60EE200A704700005A
:1035A00010B50B684A684B609A1AD0F8A03003EB4C
:1035B000D37464109442B8BFD21AE242B8BF9A18CA
:1035C00000EE102AB8EEC00AD0ED130A30EE200A41
:1035D00080ED130A9FED7F0A91ED031AB8EEC11A30
:1035E00021EE000A80ED040A10BD1CB500F09CF825
:1035F00000F091F840F2862288E0000010B5044601
:103600000846216B91B194ED010AD4ED000A70EEE9
:10361000600AB0EEE00A9FED701AB4EE410AF1EED6
:1036200010FA03D500212163FFF7DFFFD4ED000A74
:1036300094ED010A04F10C0002F08CFFD4ED020AB3
:1036400000F0E8F884ED0B0A10BD10B5044604F153
:103650001400D4ED000A94ED010A47E010B5DFED47
:103660005F1A0446F0EE400A94ED031A94ED010A45
:1036700071EE211AF4EE610AF1EE10FA44BFB5EED4
:10368000400AF1EE10FA19D4F4EE410AF1EE10FA04
:1036900044BFB5EE400AF1EE10FA1ED494ED041AC0
:1036A000DFED4F1A71EE211AF4EE601AF1EE10FA06
:1036B00009D5B5EE400AF1EE10FA04DDD4ED000AAA
:1036C000B1EE400A10E0B4EE601AF1EE10FA09D53E
:1036D000B5EE400AF1EE10FA04DDD4ED000A9FEDDC
:1036E000410A01E0D4ED000A04F1140002F032FFB7
:1036F000D4ED0E0A00F08EF884ED0D0A10BD1CB555
:1037000000F012F800F007F840F28522002140484E
:1037100000F018FB13BD0121ADF80010641CADF8DA
:1037200002406B46704700000446224655A13348CC
:10373000FFF7AAB938B5044604F18C052DED028BCC
:103740002968616104F11000FFF77FFFD5ED010AE0
:1037500000F060F8B0EE408A94ED040AB0EEC00AC2
:10376000DFED210AB4EE600AF1EE10FA46BFE86818
:10377000401C0020B0F5FA7FE8601FDB45A11F4820
:10378000FFF782F92048201AAC2190FBF1F0FFF7F7
:10379000B6FF1421284603F0D1F80020E06420652C
:1037A0006061606404F1240002F010FF04F158002D
:1037B00002F00CFF032020600021E167B0EE480A10
:1037C000BDEC028B31BD00000000804600401C466D
:1037D0000060EA4663CF0B3E0000C84200007AC496
:1037E00000007A4400000000010000400050C3C700
:1037F00000409CC600004842000048C228570020F4
:10380000D800002040550020244B002008580020FC
:10381000C8570020F4EE400AF1EE10FA48BFB0EEAF
:10382000600AF1EE600AB4EE600AF1EE10FA48BFE9
:10383000B0EE600A704700006D6F746F725479705B
:10384000655B25645D203D2025640D0A00000000B5
:103850006D6F746F724374726C4D6F64655B256439
:103860005D203D2025640D0A000000006D61785048
:103870006F7356656C5B25645D203D2025640D0AE1
:10388000000000006D6F746F724964206973202519
:10389000640D0A00686F6D696E67206F766572212E
:1038A0000D0A0000CDCCCC3D000000000000803FA0
:1038B0000000000000000000000040410000000087
:1038C0006F12833AAE47E13D0AD7233C0000000067
:1038D00000000000000000000000000000000000E8
:1038E0006F12833ACDCC4C3D000000000000004038
:1038F0000000000000000000000000400000000088
:103900006F12833A1B2FDD3CCDCC4C3D00000000F4
:1039100000000000000000000000A04000000000C7
:103920006F12833A0AD7A33D000000000000A041B7
:103930000000000000000000000000400000000047
:103940006F12833ACDCC4C3F000000000000000015
:103950000000000000000000000000400000000027
:103960006F12833A38B500F039F809D100F0D0F879
:103970000FF2904100F0CCF800F0C9F820680CE09C
:10398000DFF85424904209D100F0C2F80FF28841C8
:1039900000F0BEF800F0BBF8606829E00FF28C413F
:1039A00048E038B500F01AF809D100F0B1F80FF28C
:1039B000904100F0ADF800F0AAF820680CE0DFF8C4
:1039C0001824904209D100F0A3F80FF2884100F0CA
:1039D0009FF800F09CF860680AE029E00068DFF8D2
:1039E000FC23DFF8FC430FF2144190429FA570477F
:1039F000BDE8324001F02BBE38B5FFF7EFFF09D12B
:103A000000F086F80FF2684100F082F800F07FF8CD
:103A100020680CE0DFF8C023904209D100F078F86C
:103A20000FF2604100F074F800F071F86068DFE7B1
:103A30000FF23441002002F05CFD0FF2F83100205B
:103A400002F057FD2946BDE83440002002F051BD88
:103A5000F8B500F0B9F8DFF88C43B94283A522D15C
:103A600004F140032246002103F041FBA068002836
:103A70000CBF20686068A063314600F049F8A26B73
:103A80000FF2144100F0A4F800F041F8DFF85803F9
:103A9000A16B006803F03CFD002837D00023002212
:103AA00004F1380125E0DFF83023914222D104F1FE
:103AB000500304F11C02002103F019FB606A002886
:103AC0000CBFE069206AA064314600F021F8A26CC6
:103AD0000FF2D83100F07CF800F019F8DFF80C0391
:103AE000A16C006803F014FD80B10023002204F1F2
:103AF000480175E00FF2703100F00AF80FF234312E
:103B000000F006F82946BDE8F4409EE7F1BD2946DD
:103B1000002002F0EEBC7047F8B500F055F8B44C48
:103B2000B94252A520D104F140032246012103F0FD
:103B3000DEFAA06800280CBF20686068A0633146E8
:103B4000FFF7E6FFA26B0FF2783100F041F8FFF7C4
:103B5000DEFFA548A16B00F03EF8002833D000231B
:103B6000002204F1380122E09B4A914220D104F165
:103B7000500304F11C02012103F0B9FA606A002825
:103B80000CBFE069206AA0643146FFF7C1FFA26C58
:103B90000FF2403100F01CF8FFF7B9FF9348A16C19
:103BA00000F019F878B10023002204F1480117E071
:103BB000ADA1FFF7ADFF00BF9EA1FFF7A9FF29460A
:103BC000BDE8F44041E7F1BD0168844F8BA6704722
:103BD000002002F08EBC006821F4F85103F098BC7C
:103BE000006801B0BDE8F04001F0A7BD70470000DB
:103BF00038B50268794B7A4C8CA19A421BA518D132
:103C0000426A12F4284F03D0FFF782FFB6A10AE000
:103C1000406A10F4A83F03D0FFF77AFFB9A102E091
:103C2000FFF776FFBEA1FFF773FFFFF770FF206875
:103C30001AE0694B9A4218D1426A12F4284F03D015
:103C4000FFF766FFBBA10AE0406A10F4A83F03D06B
:103C5000FFF75EFFBEA102E0FFF75AFFC3A1FFF727
:103C600057FFFFF754FF6068C2E6E1E60A00000074
:103C700038B500BFC2A203210320594C5D4D01F0AD
:103C80005FFC2060284603F045FD284603F07CF9E0
:103C900008B104F039F8012100F050F808B104F03F
:103CA00033F8022100F04AF808B104F02DF804219D
:103CB00000F044F808B104F027F8102100F03EF8B5
:103CC00008B104F021F8202100F038F808B104F020
:103CD0001BF800BFAEA20321032001F031FC60609D
:103CE000454C204603F016FD204603F04DF908B17F
:103CF00004F00AF8012100F01EF808B104F004F8FD
:103D0000022100F018F808B103F0FEFF042100F0D2
:103D100012F808B103F0F8FF102100F00CF808B118
:103D200003F0F2FF202100F006F818B1BDE83140A1
:103D300003F0EABF31BD204603F055BA284603F030
:103D400052BA00002DE9F841044687B017462068B2
:103D5000224A234E90420D46984607D130684FF0D4
:103D6000FF3101F045FC0028F8D119E01A498842DA
:103D700007D170684FF0FF3101F03AFC0028F8D10C
:103D80000EE000BF38A1FFF7C3FE00BF29A1FFF777
:103D9000BFFE10A1FFF7BCFE19E0012001F016FBE9
:103DA000204603F08EF90028F7D0B7F5006F28BF42
:103DB000042501A87AA11822FDF7E8F901970297D6
:103DC00003956B46424601A9204603F00FF908B05F
:103DD000BDE8F0810A000000006800400064004077
:103DE00060580020B8550020685700206C5700200C
:103DF00010560020A0570020C85700205B44656281
:103E000075675D0043414E313A205478204D616919
:103E10006C626F783000000043414E323A20547893
:103E2000204D61696C626F78300000005B576172F1
:103E30006E5D2000556E6B6E6F776E2043414E00B5
:103E400043414E313A205478204D61696C626F785D
:103E50003100000043414E323A205478204D6169D0
:103E60006C626F78310000005B4572726F725D00AA
:103E700043414E313A205478204D61696C626F782D
:103E80003200000043414E323A205478204D61699F
:103E90006C626F783200000043414E313A20527814
:103EA0004649464F305B307825785D0043414E32BD
:103EB0003A2052784649464F305B307825785D008D
:103EC00043414E313A2052784649464F315B307873
:103ED00025785D0043414E323A2052784649464F9C
:103EE000315B307825785D0043414E313A2054787B
:103EF000204172626974726174696F6E206C6F73B5
:103F00007400000043414E313A20547820547261CD
:103F10006E736D697373696F6E206572726F720074
:103F200043414E313A20556E6B6E6F776E2065724D
:103F3000726F720043414E323A20547820417262CF
:103F40006974726174696F6E206C6F737400000025
:103F500043414E323A205478205472616E736D6939
:103F60007373696F6E206572726F720043414E32D7
:103F70003A20556E6B6E6F776E206572726F7200AD
:103F800018B400080000000000000000000000005D
:103F900024B4000800000000000000000000000041
:103FA0000000000000000000000000000000000011
:103FB00008000000000000002DE9F84381460D00D4
:103FC00090461C4608BF6D464F4600E07F1C38787F
:103FD00002F001FB0028F9D13E782D2E18BF2B2EC0
:103FE00005D117F8010F02F0F6FA08B109E02B2607
:103FF0002346424629463846FFF706F829688F428D
:1040000004D1C5F800900020BDE8F2832B2E04D126
:10401000B0F1004F06D2BDE8F2832D2EFBD1B0F1F6
:10402000004F0CD9AFF300800CB1012020602D2E81
:1040300014BF6FF000404FF00040BDE8F2834042F3
:10404000BDE8F2830023B7E72DE9F843044600F00A
:104050008FFA674FB8684FF00009002508BB07F1D9
:10406000180307F1180113F0070F4FF470500A46B8
:1040700005D0CA1DD208D200C2F5705008188018A9
:104080000838C008C0003A607D60B86045600560CF
:10409000831A5360106050683861F8604FF0004038
:1040A00078614FF050087869044243D1002C41D028
:1040B000083414F0070F04D004F1080004F00704DA
:1040C000041B002C36D0F868A04233D33E68394632
:1040D00001E0314606467068A04202D230680028EE
:1040E000F7D1B868864225D00A683068086002F1C6
:1040F00008097268121B112A0CD3311911F007003C
:1041000002D000F020F8FEE7301D0251746008462E
:1041100000F04AF87168F8683C69401AF860FA687B
:10412000A24288BF224678693A61014371603560D6
:1041300009F0070500F022FA15B100F004F8FEE7D7
:104140004846BDE8F28388F31188BFF34F8FBFF371
:104150006F8F7047002800D1704738B5A0F1080470
:10416000234D61686A695023114204D183F3118899
:10417000FFF7EBFFFEE7206820B183F31188FFF71C
:10418000E4FFFEE79143616000F0F2F9E9686068DE
:104190004118E960204600F007F8BDE8314000F022
:1041A000EDB91348C068704730B511490A4600E0C0
:1041B0001A4613688342FBD35368D418844203D150
:1041C0004068C3185360104643681468C518A54278
:1041D00008D189688C4204D06168CB184360246898
:1041E00000E00C460460824218BF106030BD000041
:1041F00098010020F0B585B050260B9D25B986F3B7
:10420000118800F0FDFAFEE70C9C24B986F31188B2
:1042100000F0F6FAFEE75C270097DDF800E0BEF15B
:104220005C0F04D086F3118800F0EAFAFEE7009EE6
:1042300025630026022584F8595004AF0A9D039691
:1042400002940197009500F034F8204600F078F8C9
:10425000049805B0F0BD2DE9F8430646174684B032
:1042600088469946B800FFF7EFFE05001CD05C2099
:10427000FFF7EAFE040014D00020256384F85900FB
:10428000039002940D980C99019000914B463A4688
:104290004146304600F00DF8204600F051F801206C
:1042A00004E02846FFF756FF4FF0FF3005B0BDE8A9
:1042B000F0832DE9F0470A9F81460C461546386B7E
:1042C0009A46A522A90003F021FD396B01EB850276
:1042D000101FC0084FEAC00808F0070007F13405B6
:1042E00054B10021625C6A54605C10B1491C102911
:1042F000F8D30020E87300E02870089E372E88BFAE
:104300003726099CFE62AE61E861C6F13806381DA9
:1043100003F026FD07F1180003F022FD3F61BE61A6
:104320007F6200202862002187F8581052464946D3
:10433000404603F051FD386004B12760BDE8F087C6
:104340002DE9F04100F0CFF8DFF82058DFF8308891
:10435000E86C401CE8641426A86A28BBAC62E86CD0
:10436000012829D1002706FB07F0404403F0EBFCAD
:104370007F1C382FF7D305F1740003F0E4FC05F13E
:104380008807384603F0DFFC284603F0DCFC05F123
:10439000140003F0D8FC05F1380003F0D4FC05F15B
:1043A0007400E8622F6307E0A86D28B9E06AA96A83
:1043B000CA6A904228BFAC62A86EE26A401C606480
:1043C000696D914238BF6A65A8665643211D08EBA6
:1043D000060003F0C8FC03F08AFDA86D30B100F0C0
:1043E0005DFA03D200F074FC00F00AFABDE8F08137
:1043F00038B500F078F800F079F8A06A08B100F05C
:104400000EF9A86E401CA866A86A844208D1211D36
:1044100005F1140003F0A7FC686B401C686307E01B
:10442000E86C401EE864204600F008FB00F01DFB2D
:1044300003F05DFDA86D58B1A96A8C4208D1286FC0
:1044400020B100F0E8F800F0DBF9FEE700F0D3F966
:1044500031BD80B588B1DFF81427116F21B100F0AC
:10446000B6F900F0CDF9FEE7116F491C1167002184
:1044700000F03AFC00F082F808B900F0BCF901BD88
:104480002DE9F041050004D100F0A1F900F0B8F9E0
:10449000FEE7DFF8D866B06A854208BF002020D06A
:1044A00003F00CFD6C69D6F82C80376B03F01FFD10
:1044B000444518BFBC420BD006F138018C4209D1EB
:1044C000A86A28B995F85800012818BF032008D118
:1044D000022006E006F11400844216BF002C0420DE
:1044E0000120BDE8F081044603F0E8BCDFF87C560B
:1044F00004B9AC6A201D03F05CBC000080B586B036
:1045000000210591049103AA04A905A801F080F9EE
:104510000598049902900022009201910023039AC9
:1045200011A10FF20140FFF765FE98B103F038FDCD
:104530005021012810D181F3118800F061F9DFF8D2
:104540002C064FF0FF31C166012282650021016512
:1045500003F064FC07B000BD10F1010FFAD181F344
:10456000118800F04DF9FEE749444C450000000079
:10457000DFF8C407016F491C0167704770B5DFF8A9
:10458000EC65306F0024002520B900F044F800F0FD
:1045900037F9FEE703F092FC306F401E3067306F52
:1045A000002836D1F06CD0B933E0F068C46800F070
:1045B00036F800F0ABFAE06A716D814238BF706581
:1045C0001423DFF878275843211D104403F0CBFB58
:1045D000E06AB16ACA6A904224BF0121316630683C
:1045E0000028E2D10CB100F040FAF46D44B100F0C3
:1045F00067F808B101203066641EF8D10020F0652C
:10460000306E30B1DFF838174FF08050012500F0E0
:10461000F6F800F056BB502181F31188704704F181
:10462000180003F0C6BBDFF81007006D70472DE9D6
:10463000F047DFF838758046386F401C3867002532
:10464000F86C38248142164632D3641E1420DFF8F9
:10465000EC3660434FF02409191809FB05F00122DC
:1046600000F02CF84519002CEFD1F96A09FB05F090
:1046700000F023F800EB050A396B09FB0AF000F0A3
:104680001CF8824409FB0AF0042207F1140100F02F
:1046900015F8824409FB0AF3032207F1380108EBFD
:1046A000030000F094F900EB0A050EB10020306021
:1046B000FFF764FF2846BDE8F0870222404486E108
:1046C0002DE9F843DFF8A474386F002600284FD195
:1046D0003C6D641C3C6510D1F86A006820B1FFF79E
:1046E0009AFF00F08DF8FEE7F86A396BF9623863DB
:1046F000786E401C786600F0B8F9F86EDFF83C96EA
:1047000084424FF0140827D31FE0F96AC868C568CF
:10471000686884422AD3281D03F04BFBA86A18B1AD
:1047200005F1180003F045FBE86A796D814238BF56
:10473000786508FB00F0291D484403F014FBE86A83
:10474000B96ACA6A904228BF0126F86A0068002840
:10475000DBD14FF0FF31F966B86AC06A08FB00F898
:1047600059F80810022906D3012604E0F866F3E799
:10477000F86D401CF865386E00B10126A5E210B551
:10478000DFF8E823106F10B10121116610BD10662B
:10479000516DDFF8A83500E0491E14244C43185928
:1047A00030B90029F8D100F012F800F029F8FEE73E
:1047B000181900F1080443685B684360A34204BF12
:1047C0005B6843604068C3689362516510BD5020C8
:1047D00080F31188704710B50C4620B9FFF7F7FF3A
:1047E00000F00EF8FEE700F029F803F0C9FA2046C1
:1047F000BDE8104009E0DFF848154FF08050086030
:10480000BFF34F8FBFF36F8F7047012100F06CBA79
:1048100038B50D46144620B9FFF7D9FFFFF7F0FF72
:10482000FEE700F00BF803F09EFA0CB14FF0FF35F5
:1048300021462846BDE8344000F056BADFF8F82497
:10484000936A03F11801704738B5C068C46824B989
:10485000FFF7BDFFFFF7D4FFFEE7FFF7E0FEDFF84D
:10486000D854286F40B900F051F900F013F838BF60
:104870006A6500F033FA02E004F11801284603F0FB
:1048800072FA00F00BF803D201212966012032BD33
:10489000002032BDE26A686D90427047A86AC16A22
:1048A000E06A81427047DFF890144A6E0260096D39
:1048B00041607047F8B504460D46502024B980F396
:1048C0001188FFF79DFFFEE725B980F31188FFF7F8
:1048D00097FFFEE703F0F2FADFF85C04016D62680F
:1048E0002E688B1A16F1010F0ED0476ED4F800C057
:1048F000674501D091420BD2B34207D2F31A2B6025
:10490000416E2160006D6060002402E0002028609C
:10491000012403F0ECFA2046F2BDDFF81C1401205C
:104920000866704770B5964CDFF80C5411E003F040
:10493000C5FA286AC668301D03F03BFAE86C401ED1
:10494000E864686B401E686303F0D1FA304600F0FB
:1049500075F8686B0028EAD121680229F9D3FFF7BE
:104960004AFFF6E770B505000E4614467F4808BFBB
:10497000856A356005F134017160EA6A3261296B3C
:10498000F1616A6CB2600022E96C7161052BB26161
:1049900011D0816A8D4208BF327310D0032B33735C
:1049A0000DD1016F491C0167A86A08B1022131735A
:1049B000FFF7E4FD03E02846FFF762FD30731CB10A
:1049C000286B00F030F800E00020308470BD2DE945
:1049D000F8430D460446286890460027C8B100F009
:1049E0001BF804BF406868606868C66800F014F887
:1049F00004BF406868606868D0F80C902420784351
:104A00002118434601224846FFF7ACFF7F1CB14501
:104A1000ECD13846BDE8F28368684068686005F10B
:104A20000801884270470146002000E0401C11F850
:104A3000012BA52AFAD08003000C704710B504465C
:104A400094F8590040B9206BFFF784FB2046BDE87D
:104A50001040FFF77FBB10BD0128F7D00228FAD025
:104A6000FFF7B5FEFFF7CCFEFEE74049C86A0068D5
:104A700010B94FF0FF3203E0C86AC268D0684268DC
:104A8000CA667047DFF8B002806A7047DFF8A81284
:104A9000886D08B901207047086F08B90220704777
:104AA00000207047F8B50446002074B3E16A2F4D2A
:104AB000AA6AD36A994222D2A069002804D4A86ABB
:104AC000C26AC2F13802A2611427DFF8706262691B
:104AD000794331448A420ED100F018F8A86AC06ABE
:104AE000696D814238BF6865E0624743211DF01956
:104AF00003F039F908E0A86AC16AE16204E0E16CF8
:104B0000AA6AD36A994200D20120F2BD201D03F0A7
:104B100050B938B50446002134B3DFF81C52A86AF6
:104B20005022844204D082F31188FFF769FEFEE729
:104B3000206D20B982F31188FFF762FEFEE7E26A7A
:104B4000E36C401E9A4220650ED068B9FFF7DEFF85
:104B5000E26CE262C2F13800A061696D914238BF37
:104B60006A6500F005F80121084632BDA454002012
:104B70001420DFF8C8314243211D981803F0F3B820
:104B800068420020F8B5040034D0206D502220B9CE
:104B900082F31188FFF734FEFEE7E36C994238BFD9
:104BA0001946E36A8B4225D0012823D1DFF88851CA
:104BB000A86A844204D182F31188FFF721FEFEE740
:104BC000A069E16200285CBFC1F13801A16114272E
:104BD000DFF8686161697B43F21891420AD1FFF7FF
:104BE00095FFE06A696D814238BF68654743211DC2
:104BF000F019A7E0F1BD00002DE9FE4F07460020A7
:104C000038702425DFF83001D0F84CA0C06C684320
:104C1000FFF71AFA5FEA000947D000225146FFF772
:104C200006FD82464FF0000B0FF2201816E03954B3
:104C3000401C0F28FBD3002139543F18A068019075
:104C40003246218C009141462369384603F054FBDB
:104C50003846FCF765FA3F180BF1010BD3451FD21C
:104C600005FB0BF009EB0004207B04280ED8DFE8DD
:104C700000F0030507090B00582608E0522606E05D
:104C8000422604E0532602E0442600E00026616844
:104C9000384603F051FB3846FCF742FA2021C8E7BA
:104CA0004846BDE8FE4FFFF755BABDE8F78FDFF87D
:104CB0008810886A18B1886A026D521C0265886A79
:104CC000704703F014F9284670BD3046BDE8F28302
:104CD0001B4A4FF080511160704700001420174BA1
:104CE0004243211D98187047F8B5134D2F6D0C469F
:104CF000A96A0646081D03F05CF816F1010F05D1FC
:104D000024B1A86A011D05F138001BE0A86AF61954
:104D10004660BE42A86A05D2011D286BBDE8F4407A
:104D200003F02EB8011DE86A03F02AF8E86E864207
:104D300038BFEE66F1BD0000A45400206842002098
:104D400004ED00E0BDE8F44003F00DB80925630967
:104D500025750925750925750D0A00002DE9F0470F
:104D6000524DDFF84C91296890B04846FDF78CFE13
:104D70004CA60FF2841A0DF104084E4800684FF05B
:104D8000FF3100F035FC48A739464B4803F0E0FA04
:104D9000002406E048F824003946002003F0D8FA41
:104DA000641C08B1052CF5D3009400240FE0926830
:104DB00006A93846904709E00699686802F0A8FB02
:104DC0000200F4D146A14846FDF75EFE641C00983F
:104DD0008442D2DA58F824703A4651464846FDF7E4
:104DE00053FE3146384603F0B3FA002707E006A920
:104DF00041F827003146002003F0AAFA7F1C08B1D1
:104E00000A2FF4DB002FD7DC32A1DCE7024608686A
:104E10003CA143682648FDF737BE2448274940682F
:104E2000002202F0A7BB000010B50022244925484B
:104E30001E4C02F002FB6060DFF88C200FF2D801FC
:104E400033A000F009F8FDF72AFA204A2048002193
:104E500000F05BFAA06010BDF8B504460D4616469A
:104E60000C20FFF7F1F807462046FCF759F9401CE3
:104E7000FFF7EAF83860214603F05EFA2846FCF7AF
:104E80004FF9401CFFF7E0F87860294603F054FA28
:104E9000BE603A46396805484068BDE8F84002F00F
:104EA000EFBA0000200000003B0D0A00F0000020D7
:104EB0002857002074500020305000200D4E00086C
:104EC0001D7400080F7400081B4E000878B200081B
:104ED0005D4D00084E6F20496E707574210D0A00FB
:104EE000436F6D6D616E64204E6F7420466F756EFA
:104EF00064210D0A000000003E3E3E2025730D0A8D
:104F00000000000025733A2025730D0A0000000000
:104F100068656C700000000053686F7720746869E2
:104F20007320706167650000F8B52DED048B1400E7
:104F300082B041EC180B1D4600F0DE8031F00041DC
:104F400008BF002800F0D88051EC180B4A00521519
:104F500012F1010F02D1080300F0CE80002C9FED6A
:104F60006A9B57D56442674F7F4407F5CC77082684
:104F70000CE0E00707D5D7E9002351EC190BFCF74B
:104F8000C1FC41EC190B64080837761E002C18BFD1
:104F9000002EEED16A4651EC180BFCF703F9009E87
:104FA00053EC192BFCF76AFB3246FCF767F941EC2E
:104FB000180B31F0004108BF002800F0868051EC4A
:104FC000180B4A00521512F1010F01D108037CD0D1
:104FD000002C7AD06A4651EC180BFCF7E3F8009EDF
:104FE0009B4A9C4BFCF78EFC3246FCF747F941ECA0
:104FF000180B31F0004108BF002866D051EC180BA7
:105000004A00521512F1010F01D108035DD0641E50
:10501000E0D15AE059DD3B4F7F4407F1E80708260D
:10502000E00707D5D7E9002351EC190BFCF76AFC20
:1050300041EC190B64100837761E002C01DD002EA0
:10504000EED16A4651EC180BFCF7ACF8264641EC61
:10505000100B009C53EC102B51EC190BFCF752FC7D
:105060002246FCF70BF941EC180B31F0004108BF68
:1050700000282AD051EC180B4A00521512F1010FEA
:1050800001D1080321D0002E1FDD6A4651EC180B18
:10509000FCF788F8009C704A784BFCF733FC2246FA
:1050A000FCF7ECF841EC180B31F0004108BF002888
:1050B0000BD051EC180B4A00521512F1010F01D11F
:1050C000080302D0761E002EDFDC51EC180B31F005
:1050D000004108BF002808D051EC180B4A005215B7
:1050E00012F1010F08D1080306D1AFF300801DB102
:1050F000286840F00100286002B051EC180BBDECAC
:10510000048BF4BD2C5F0000000000000000F03FA5
:105110002DE9F14D81B00C462DED028B84B0934604
:105120005FEA030A1CBF0020CAF80000079D07A819
:1051300003F034F9C11020F00800012801F0010843
:1051400032D10220009001AB07992246284603F095
:10515000B7F9040008BF9FED4A0B1ED00298FCF778
:105160004BF9022C41EC100B17DB03AF661E9FEDD1
:105170003B8B51EC100B53EC182BFCF7C3FB044694
:1051800057F8040B0D46FCF737F922462B46FCF77F
:1051900045F9761E41EC100BEBD1019800EB0B02A8
:1051A000534651EC100B33E0022836D1009001AB8E
:1051B00007992246284603F05FFA040008BF9FEDD6
:1051C000300B1ED00298FCF717F9022C41EC100BA3
:1051D00017DB03AF661E9FED238B51EC100B53ECD6
:1051E000182BFCF78FFB044657F8040B0D46FCF711
:1051F00003F922462B46FCF711F9761E41EC100B01
:10520000EBD1019A51EC100BFCF738F853465A4693
:10521000FFF78AFE41EC100B0AE0032808BF9FED60
:10522000130B05D004280CBF9FED120B9FED140B40
:10523000B8F1000F05D051EC100B81F0004141ECAA
:10524000100B04B051EC100BBDEC028BBDE8FC8DD3
:10525000436FAC642806C80A3CBF737F000000009F
:1052600065CDCD41000000000000B041000000000D
:105270000000F07FFFFFFFFFFFFFFF7FDD4F157591
:105280000000000000000000002341E70022002190
:10529000FAE70000EFF3058060B9DFF87C11EFF367
:1052A0001080002804BFEFF31180002803D00868A5
:1052B000022800D17FE0086810B901220A60704717
:1052C0004FF0FF307047000080B5EFF3058058B90C
:1052D000DFF8441100F076F804BFEFF311800028E6
:1052E00003D00868022800D109E00868012805D128
:1052F00002220A60FFF702F9002002BD02E06FF00F
:10530000050002BD4FF0FF3002BDF8B584B00023A8
:105310000393EFF30583002B4AD1EFF31083002BA7
:1053200004BFEFF31183002B04D0DFF8EC301C68CE
:10533000022C3DD003003BD08025182600245AB310
:10534000136803B11C4693691BB11E0004D0392EAB
:1053500002D21379DF0701D500202AE0536903B197
:105360009D08D2F80CC0976887B1BCF15C0F1FD3C1
:105370001269002A18BF002B1AD001920B4602971F
:1053800000962A462146FEF735FF10E0BCF1000FDB
:1053900004BF1269002A0BD103AB019300960B46A0
:1053A000AAB22146FEF757FF012801D00020039042
:1053B000039805B0F0BD6FF0050070470020FFF7BF
:1053C00017F8FEE7EFF310800028704710B5EFF3F1
:1053D000058149B900F016F804BFEFF311810029E7
:1053E00005D000F013F802D16FF0050403E00024AB
:1053F00008B1FFF72EF8204610BDDFF81C00016849
:1054000002297047EFF310810029704702490A68AA
:10541000022A7047000000006C58002070B5044656
:105420000026EFF30580002831D1FFF7CBFF04BF42
:10543000EFF31180002802D0FFF7DFFF27D0002C08
:1054400014BF6068002000F0010500071FD454B1AC
:10545000E068A16831B1502819D38DB1042003F060
:10546000BCFA06E098B9002D14BF0420012003F017
:10547000A9FA06000BD0002C14BF2168002101E01E
:105480000120ECE703F04DFE0DB146F00106304679
:1054900070BDF8B5024650080C4640000025EFF3F9
:1054A000058159B9FFF7AEFF04BFEFF31181002961
:1054B00007D0DFF880130B68022B02D16FF00505CF
:1054C00015E010B96FF0030511E0D1076FF0020687
:1054D0006FF00107214602D503F0A5FA01E003F0C1
:1054E00095FC012803D0002C14BF3D4635462846C4
:1054F000F2BD38B50146480840000024EFF30582AC
:105500004AB900F012F904BFEFF31182002A05D066
:1055100000F00FF902D16FF005040FE010B96FF041
:1055200003040BE0C9076FF0020502D503F062FA2D
:1055300001E000F058F8012818BF2C46204632BD83
:105540007CB50E4614460025EFF30581002948D1AD
:10555000FFF758FF04BFEFF31181002902D0FFF7D6
:1055600055FF3ED000283CD0B0423AD344B1E26867
:10557000A16819B1502A34D3012102E0002A30D1A8
:10558000002101281AD1012908D10320009000220E
:10559000A3680021012003F0ACF903E003220021FD
:1055A00003F0D8F905001CD0A6B100F01CF80128C2
:1055B00010D0284603F01DFD002512E0012904D17A
:1055C000A268314603F051FA02E0314603F067FA6F
:1055D000050006D0002C14BF21680021284603F0E6
:1055E000A0FD284676BD00230022002103F06EBAFC
:1055F0007CB50C46002578B16FF00206EFF305810B
:1056000049B9FFF7FFFE04BFEFF31181002912D063
:10561000FFF7FCFE0FD114B16FF0030515E0009504
:105620006A46002103F0A4FC01280DD1009860B166
:1056300000F034F809E0214603F0E8FB012804D02B
:1056400014B16FF0010500E03546284676BD38B547
:10565000002410B96FF003041EE06FF00205EFF3B1
:10566000058149B9FFF7CEFE04BFEFF31181002990
:105670000DD0FFF7CBFE0AD10094694603F002FB80
:10568000012808D1009838B100F008F804E0FFF7CD
:10569000AAFF012800D02C46204632BD04484FF016
:1056A00080510160BFF34F8FBFF36F8F70470000D1
:1056B00004ED00E0F8B514460025EFF30582002A5A
:1056C00031D100F032F804BFEFF31182002A02D08A
:1056D00000F02FF827D0002818BF002923D0E4B10C
:1056E000E268A36893B1502A1DD32269DAB16669D2
:1056F00001FB00F7BE4216D3009503F0FAF805004F
:1057000011D0002C14BF216800210AE0002A04BF38
:105710002269002A07D162692AB9002203F01AF926
:10572000EDE703F0FEFC2846F2BDEFF31082002AFD
:105730007047404A1368022B70477CB500F061F84F
:105740004AB9FFF7F2FF04BFEFF31182002A13D02A
:10575000FFF7EFFF10D1002818BF002910D07CB947
:10576000009400236A4603F048FA012815D10098F6
:10577000A0B1FFF793FF11E0002818BF002902D164
:105780006FF003050AE00023224603F09FF9012889
:1057900004D014B16FF0010500E03546284676BD0F
:1057A0007CB500F02EF84AB9FFF7BFFF04BFEFF356
:1057B0001182002A12D0FFF7BCFF0FD1002818BFBA
:1057C00000290FD074B900956A4603F0D1FB012877
:1057D00014D1009898B1FFF761FF10E0002818BFBE
:1057E000002902D16FF0030509E0224603F08CFA8C
:1057F000012804D014B16FF0010500E035462846B9
:1058000076BD1C4600256FF00206EFF30582704757
:10581000094B036003F15C00086080211160704750
:10582000064B036003F15C0008604FF48071116067
:10583000704700006C580020D44D0020C84600205E
:1058400070B5044603F0B8FC06460CB9012070BDE3
:1058500004F1340500202870022169702068026874
:1058600052085200026022681068C1070AD503F08E
:10587000A3FC801B0628F6D3202028620321697030
:10588000032070BD1368DFF8380361680340A06827
:105890000B43E168034320690B4361690343A0693B
:1058A0000B43E1690343206A0B43616A0343042904
:1058B00003D1E16A206B0B430343136023685A69E9
:1058C000606AD208042840EAC2020AD1A66AE16AE4
:1058D000324331B1A06988B9002E18BF022E1FD003
:1058E00016D35A61204600F09BF9A96A3F228A40EC
:1058F0008260002028620121697070BDB0F5005FF0
:105900000AD1032EEDD8DFE806F00D0B0D03E8E712
:10591000B1F1C07FE5D105E0022E03D9F61EE0D13A
:10592000C801DED5402129620120687070BDF8B53C
:10593000044604F1340600253078776A012801D145
:105940000220F2BD0120307096F801C0BCF1010FB9
:105950001FD102207070AC46C6F820C0204600F06F
:105960004EF9B06A3F2101FA00FCC7F808C0206870
:10597000016841F016010160F06820B120680168FB
:1059800041F0080101602068016841F001010160F7
:1059900001E0357002252846F2BDF8B5044604F151
:1059A00034056E6A03F008FC07466878022805D0C3
:1059B00080212962002028700120F2BD2068016842
:1059C00021F01601016000F004F9E868002804BF26
:1059D0006869002801D000F008F900F000F920689B
:1059E0000168CA070CD503F0E7FBC01B0628F6D3F5
:1059F000202028620021297003226A700320F2BD52
:105A0000A96A3F208840B0600122002028706A7097
:105A1000F2BD90F83510022903D0802242650120A2
:105A20007047052180F8351000680268520852005E
:105A30000260002070472DE9FC41044604F1340661
:105A40000020604900904FF41650776A0A683D685C
:105A5000B2FBF0F8B06A082100F0B7F80ED0206869
:105A6000026853070AD5026822F004020260B06A95
:105A70008140B960316A41F001013162B06A25FAB2
:105A800000F1CA070BD521684A69110607D5012222
:105A900002FA00F0B860306A40F00200306204217F
:105AA00000F092F808D021680A68930704D5B8601E
:105AB000306A40F004003062102100F085F81BD0FD
:105AC00021680A68130717D5B860206801684A037F
:105AD00007D5006801030BD5716969B12046884775
