:020000040800F2
:1000000000000220912E0008152900081729000879
:10001000192900081B2900081D29000800000000FC
:100020000000000000000000000000001136000881
:100030001F29000800000000B1360008E32E000868
:10004000E12E0008E12E0008E12E0008E12E000854
:10005000E12E0008E12E0008E12E0008E12E000844
:10006000E12E0008E12E0008E12E0008E12E000834
:1000700021290008E12E000831290008E12E00089E
:10008000E12E0008E12E0008E12E000841290008B9
:100090005129000861290008E12E0008E12E00081E
:1000A000E12E0008E12E0008E12E0008E12E0008F4
:1000B00071290008E12E0008E12E0008E12E000859
:1000C000E12E0008E12E0008E12E0008E12E0008D4
:1000D000E12E0008E12E0008E12E00088129000829
:1000E000E12E0008E12E0008E12E0008E12E0008B4
:1000F000E12E0008A5290008E12E0008E12E0008E5
:10010000E12E0008E12E0008E12E0008E12E000893
:10011000E12E0008E12E0008E12E0008E12E000883
:10012000E12E0008E12E0008E12E0008E12E000873
:10013000E12E00080000000000000000B5290008C2
:10014000C5290008D5290008E12E0008E12E000885
:10015000E12E0008E12E0008E12E0008E12E000843
:10016000E12E0008E12E0008E12E0008E12E000833
:10017000E12E0008E12E0008000000000000000051
:08018000E12E0008E12E000849
:1001C00081F0004102E000BF83F0004330B54FEA08
:1001D00041044FEA430594EA050F08BF90EA020F75
:1001E0001FBF54EA000C55EA020C7FEA645C7FEA08
:1001F000655C00F0E2804FEA5454D4EB5555B8BF2B
:100200006D420CDD2C4480EA020281EA030382EA9B
:10021000000083EA010180EA020281EA0303362D2D
:1002200088BF30BD11F0004F4FEA01314FF4801C00
:100230004CEA113102D0404261EB410113F0004F12
:100240004FEA03334CEA133302D0524263EB4303C9
:1002500094EA050F00F0A780A4F10104D5F1200E67
:100260000DDB02FA0EFC22FA05F2801841F10001C2
:1002700003FA0EF2801843FA05F359410EE0A5F196
:1002800020050EF1200E012A03FA0EFC28BF4CF0C7
:10029000020C43FA05F3C01851EBE37101F000457D
:1002A00007D54FF0000EDCF1000C7EEB00006EEB8A
:1002B0000101B1F5801F1BD3B1F5001F0CD3490814
:1002C0005FEA30004FEA3C0C04F101044FEA44526B
:1002D00012F5800F80F09A80BCF1004F08BF5FEAF2
:1002E000500C50F1000041EB045141EA050130BDD2
:1002F0005FEA4C0C404141EB0101013C28BFB1F5E4
:10030000801FE9D291F0000F04BF01460020B1FA2E
:1003100081F308BF2033A3F10B03B3F120020CDA01
:100320000C3208DD02F1140CC2F10C0201FA0CF0DF
:1003300021FA02F10CE002F11402D8BFC2F1200C44
:1003400001FA02F120FA0CFCDCBF41EA0C019040FA
:10035000E41AA2BF01EB0451294330BD6FEA040443
:100360001F3C1CDA0C340EDC04F11404C4F120022E
:1003700020FA04F001FA02F340EA030021FA04F340
:1003800045EA030130BDC4F10C04C4F1200220FA97
:1003900002F001FA04F340EA0300294630BD21FAD5
:1003A00004F0294630BD94F0000F83F4801306BF9B
:1003B00081F480110134013D4EE77FEA645C18BF8F
:1003C0007FEA655C29D094EA050F08BF90EA020F26
:1003D00005D054EA000C04BF1946104630BD91EA1E
:1003E000030F1EBF0021002030BD5FEA545C05D121
:1003F0004000494128BF41F0004130BD14F5800460
:100400003CBF01F5801130BD01F0004545F0FE41D3
:1004100041F470014FF0000030BD7FEA645C1ABF08
:10042000194610467FEA655C1CBF0B46024650EA3F
:10043000013406BF52EA033591EA030F41F400216B
:1004400030BD00BF90F0000F04BF0021704730B5F1
:100450004FF4806404F132044FF000054FF00001C6
:1004600050E700BF90F0000F04BF0021704730B587
:100470004FF4806404F1320410F0004548BF40425C
:100480004FF000013EE700BF42004FEAE2014FEAB1
:1004900031014FEA02701FBF12F07F4393F07F4F8C
:1004A00081F06051704732F07F4208BF704793F08F
:1004B0007F4F04BF41F40021704730B54FF46074A2
:1004C00001F0004521F000411CE700BF50EA0102A5
:1004D00008BF704730B54FF000050AE050EA01024E
:1004E00008BF704730B511F0004502D5404261EBBE
:1004F00041014FF4806404F132045FEA915C3FF4FF
:10050000D8AE4FF003025FEADC0C18BF03325FEA9B
:10051000DC0C18BF033202EBDC02C2F1200300FA4C
:1005200003FC20FA02F001FA03FE40EA0E0021FA71
:1005300002F11444BDE600BF70B54FF0FF0C4CF45F
:10054000E06C1CEA11541DBF1CEA135594EA0C0F11
:1005500095EA0C0F00F0DEF82C4481EA030621EA4C
:100560004C5123EA4C5350EA013518BF52EA033587
:1005700041F4801143F4801338D0A0FB02CE4FF039
:100580000005E1FB02E506F00042E0FB03E54FF069
:100590000006E1FB03569CF0000F18BF4EF0010E61
:1005A000A4F1FF04B6F5007F64F5407404D25FEA5D
:1005B0004E0E6D4146EB060642EAC62141EA555110
:1005C0004FEAC52040EA5E504FEACE2EB4F1FD0C52
:1005D00088BFBCF5E06F1ED8BEF1004F08BF5FEAD0
:1005E000500E50F1000041EB045170BD06F0004682
:1005F00046EA010140EA020081EA0301B4EB5C042F
:10060000C2BFD4EB0C0541EA045170BD41F4801126
:100610004FF0000E013C00F3AB8014F1360FDEBF4B
:10062000002001F0004170BDC4F10004203C35DA27
:100630000C341BDC04F11404C4F1200500FA05F3AA
:1006400020FA04F001FA05F240EA020001F000424B
:1006500021F0004110EBD37021FA04F642EB0601C1
:100660005EEA430E08BF20EAD37070BDC4F10C04EB
:10067000C4F1200500FA04F320FA05F001FA04F2AF
:1006800040EA020001F0004110EBD37041F100019B
:100690005EEA430E08BF20EAD37070BDC4F12005A6
:1006A00000FA05F24EEA020E20FA04F301FA05F20E
:1006B00043EA020321FA04F001F0004121FA04F2B6
:1006C00020EA020000EBD3705EEA430E08BF20EA86
:1006D000D37070BD94F0000F0FD101F000464000C0
:1006E00041EB010111F4801F08BF013CF7D041EA42
:1006F000060195F0000F18BF704703F00046520046
:1007000043EB030313F4801F08BF013DF7D043EA16
:100710000603704794EA0C0F0CEA135518BF95EACC
:100720000C0F0CD050EA410618BF52EA4306D1D153
:1007300081EA030101F000414FF0000070BD50EA72
:10074000410606BF1046194652EA430619D094EAFC
:100750000C0F02D150EA013613D195EA0C0F05D1E6
:1007600052EA03361CBF104619460AD181EA03013A
:1007700001F0004141F0FE4141F470014FF00000F2
:1007800070BD41F0FE4141F4780170BD70B54FF08D
:10079000FF0C4CF4E06C1CEA11541DBF1CEA13550D
:1007A00094EA0C0F95EA0C0F00F0A7F8A4EB0504EF
:1007B00081EA030E52EA03354FEA013100F08880E6
:1007C0004FEA03334FF0805545EA131343EA1263AF
:1007D0004FEA022245EA111545EA10654FEA002664
:1007E0000EF000419D4208BF964244F1FD0404F51D
:1007F000407402D25B084FEA3202B61A65EB030579
:100800005B084FEA32024FF480104FF4002CB6EB35
:10081000020E75EB030E22BFB61A754640EA0C00B5
:100820005B084FEA3202B6EB020E75EB030E22BFF5
:10083000B61A754640EA5C005B084FEA3202B6EB36
:10084000020E75EB030E22BFB61A754640EA9C00F5
:100850005B084FEA3202B6EB020E75EB030E22BFC5
:10086000B61A754640EADC0055EA060E18D04FEA83
:10087000051545EA16754FEA06164FEAC30343EA23
:1008800052734FEAC2025FEA1C1CC0D111F4801FF0
:100890000BD141EA00014FF000004FF0004CB6E7E9
:1008A00011F4801F04BF01430020B4F1FD0C88BF88
:1008B000BCF5E06F3FF6AFAEB5EB030C04BFB6EB93
:1008C000020C5FEA500C50F1000041EB045170BD86
:1008D0000EF0004E4EEA113114EB5C04C2BFD4EBB3
:1008E0000C0541EA045170BD41F480114FF0000E37
:1008F000013C90E645EA060E8DE60CEA135594EAB3
:100900000C0F08BF95EA0C0F3FF43BAF94EA0C0FB5
:100910000AD150EA01347FF434AF95EA0C0F7FF42A
:1009200025AF104619462CE795EA0C0F06D152EA7E
:1009300003353FF4FDAE1046194622E750EA410662
:1009400018BF52EA43067FF4C5AE50EA41047FF473
:100950000DAF52EA43057FF4EBAE12E74FF0FF3CD8
:1009600006E000BF4FF0010C02E000BF4FF0010CA9
:100970004DF804CD4FEA410C7FEA6C5C4FEA430C22
:1009800018BF7FEA6C5C1BD001B050EA410C0CBF71
:1009900052EA430C91EA030F02BF90EA020F0020D3
:1009A000704710F1000F91EA030F58BF994208BF3A
:1009B00090422CBFD8176FEAE37040F001007047F7
:1009C0004FEA410C7FEA6C5C02D150EA013C07D14E
:1009D0004FEA430C7FEA6C5CD6D152EA033CD3D099
:1009E0005DF8040B704700BF8446104662468C4693
:1009F0001946634600E000BF01B5FFF7B7FF0028C6
:100A000048BF10F1000F01BD4DF808EDFFF7F4FFEE
:100A10000CBF012000205DF808FB00BF4DF808ED79
:100A2000FFF7EAFF34BF012000205DF808FB00BF9C
:100A30004DF808EDFFF7E0FF94BF012000205DF8BE
:100A400008FB00BF4DF808EDFFF7CEFF94BF012073
:100A500000205DF808FB00BF4DF808EDFFF7C4FF6C
:100A600034BF012000205DF808FB00BF4FEA4102BF
:100A700012F5001215D211D56FF47873B3EB6252F0
:100A800012D94FEAC12343F0004343EA505311F017
:100A9000004F23FA02F018BF404270474FF00000A9
:100AA000704750EA013005D111F0004008BF6FF0E7
:100AB000004070474FF00000704700BF4FEA41020E
:100AC000B2F1E04324BFB3F5001CDCF1FE5C0DD9AC
:100AD00001F0004C4FEAC0024CEA5070B2F1004FF6
:100AE00040EB830008BF20F00100704711F0804FF9
:100AF00021D113F13872BCBF01F00040704741F4BE
:100B000080114FEA5252C2F11802C2F1200C10FAC1
:100B10000CF320FA02F018BF40F001004FEAC123A5
:100B20004FEAD32303FA0CFC40EA0C0023FA02F349
:100B30004FEA4303CCE77FEA625307D150EA01331F
:100B40001EBF4FF0FE4040F44000704701F00040EF
:100B500040F0FE4040F40000704700BF53B94AB96E
:100B6000002908BF00281CBF4FF0FF314FF0FF30B5
:100B700000F00CB8ADF1080C6DE904CE0AF03EFBB4
:100B8000DDF804E0DDE9022304B07047704700BFE0
:100B90000000000000000000000000000000000055
:100BA00002780B78012A28BF9A4240F0D8806DE97C
:100BB000044540EA0104CDE902676FF0000C4FEAFA
:100BC00044721AB380EA010414F0070F6BD100F0ED
:100BD000070420F0070004F0030521F007014FEAA5
:100BE000C505F0E8042314F0040FF1E804670CFADB
:100BF00005F462EA040266EA04060BD063EA040321
:100C0000624667EA0407664604E000BFF0E8042392
:100C1000F1E8046782FA4CF582EA0604A4FA8CF43F
:100C20006CBB83FA4CF583EA0705A5FA8CF595B9F8
:100C300050E9022351E9026782FA4CF582EA060480
:100C4000A4FA8CF483FA4CF583EA0705A5FA8CF52F
:100C50002543DBD09CB92DBAB5FA85F424F00704FE
:100C600027FA04F1DDE9026723FA04F303F0FF0039
:100C700001F0FF01FDE80445A0EB0100704724BA34
:100C8000B4FA84F424F0070426FA04F1DDE90267DB
:100C900022FA04F202F0FF0001F0FF01FDE8044532
:100CA000A0EB0100704714F0030F3CD110F00304D7
:100CB00028D150F8082B51F8083B82FA4CF582EA0B
:100CC0000305A5FA8CF55DB950F8042C51F8043CE5
:100CD00082FA4CF582EA0305A5FA8CF5002DE8D0DE
:100CE0002DBAB5FA85F424F0070423FA04F122FAA8
:100CF00004F202F0FF0001F0FF01FDE80445A0EB63
:100D0000010070474FEAC40420F0030050F8082B9C
:100D100021F0030151F8083B0CFA04F462EA0402E2
:100D200063EA0403C9E710F003041DD0A1EB04013A
:100D300020F00300E40750F8042B06D012D28B7881
:100D40005FFAA2F4E41A06D12BB1CB785FFAB2F4C1
:100D5000E41A00D133B920465DF8104B7047A2EB7E
:100D60000300704701F1040150F8042BCC0721F077
:100D7000030151F8043B48D824D222F07F4482FA80
:100D80004CF594EA1325A5FA8CF50AD165B951F80A
:100D9000043B84EA0204B4EB036F0ED150F8042B39
:100DA000EBE74FEA132355E035F07F454DD1087846
:100DB000FDE80445C0F1000070474FEA126203F0FD
:100DC000FF0347E002EA1C4482FA4CF594EA13451B
:100DD000A5FA8CF50AD165B951F8043B84EA0204FE
:100DE000B4EB034F0CD150F8042BEBE74FEA13435D
:100DF00030E015EA1C4528D10B884FEA124229E061
:100E00004FEA124203EA1C4324E002F0FF0482FA94
:100E10004CF594EA1365A5FA8CF50AD165B951F839
:100E2000043B84EA0204B4EB032F09D150F8042BED
:100E3000EBE74FEA13630DE015F0FF0F05D10B68E8
:100E40004FEA122223F07F4304E04FF00000FDE858
:100E50000445704712BA1BBA82FA4CF482EA0304C2
:100E6000A4FA8CF5B5FA85F402FA04F203FA04F355
:100E70004FEA1260FDE80445A0EB1360704700BF25
:100E800001F0FF01102A2BDB10F0070F08D010F83B
:100E9000013B013A8B422DD010F0070F42B3F6D13F
:100EA000F0B441EA012141EA014122F007047FF058
:100EB00000070023F0E80256083C85EA010586EAAF
:100EC000010685FA47F5A3FA87F586FA47F6A5FAEB
:100ED00087F68EB9EED1F0BC01F0FF0102F00702F7
:100EE00032B110F8013B013A83EA010313B1F8D1A2
:100EF0000020704701387047002D06BF3546033883
:100F0000073815F0010F07D1013015F4807F02BFBB
:100F1000013015F4C03F0130F0BC0138704700BF0C
:100F2000844641EA000313F003036DD1403A41D3F4
:100F300051F8043B40F8043B51F8043B40F8043BB3
:100F400051F8043B40F8043B51F8043B40F8043BA3
:100F500051F8043B40F8043B51F8043B40F8043B93
:100F600051F8043B40F8043B51F8043B40F8043B83
:100F700051F8043B40F8043B51F8043B40F8043B73
:100F800051F8043B40F8043B51F8043B40F8043B63
:100F900051F8043B40F8043B51F8043B40F8043B53
:100FA00051F8043B40F8043B51F8043B40F8043B43
:100FB000403ABDD2303211D351F8043B40F8043BE3
:100FC00051F8043B40F8043B51F8043B40F8043B23
:100FD00051F8043B40F8043B103AEDD20C3205D3F3
:100FE00051F8043B40F8043B043AF9D2043208D0EB
:100FF000D2071CBF11F8013B00F8013B01D30B885D
:1010000003806046704700BF082A13D38B078DD03A
:1010100010F003038AD0C3F10403D21ADB071CBF0C
:1010200011F8013B00F8013B80D331F8023B20F876
:10103000023B7BE7043AD9D3013A11F8013B00F8AF
:10104000013BF9D20B7803704B7843708B78837037
:101050006046704700000000000000000000000033
:101060000000000000000000000000000000000080
:101070000000000000000000000000000000000070
:1010800030B490F800F020F007016FF0000C10F081
:10109000070491F820F040F048804FF000046FF012
:1010A0000700D1E9002391F840F000F1080082FA2E
:1010B0004CF2A4FA8CF283FA4CF3A2FA8CF34BBBF9
:1010C000D1E9022382FA4CF200F10800A4FA8CF272
:1010D00083FA4CF3A2FA8CF3E3B9D1E9042382FA40
:1010E0004CF200F10800A4FA8CF283FA4CF3A2FA55
:1010F0008CF37BB9D1E9062301F1200182FA4CF28D
:1011000000F10800A4FA8CF283FA4CF3A2FA8CF3F3
:10111000002BC6D0002A04BF04301A4612BAB2FA15
:1011200082F200EBD20030BC7047D1E9002304F01A
:101130000305C4F100004FEAC50514F0040F91F84F
:1011400040F00CFA05F562EA05021CBF63EA0503EC
:1011500062464FF00004AAE74FEA410C7FEA6C5C5C
:1011600002D150EA013C0AD14FEA430C7FEA6C5CA1
:1011700002D152EA033C02D14FF0000070474FF019
:10118000010070474A0011D212F5001211D20DD59C
:101190006FF47873B3EB62520ED44FEAC12343F07D
:1011A000004343EA505323FA02F070474FF0000027
:1011B000704750EA013002D14FF0FF3070474FF0D6
:1011C000000070470348044B834202D0034B03B135
:1011D0001847704738090020380900200000000037
:1011E0000548064B1B1AD90F01EBA301491002D089
:1011F000034B03B118477047380900203809002015
:101200000000000010B5064C237843B9FFF7DAFF61
:10121000044B13B10448AFF300800123237010BDC9
:101220003809002000000000303D010808B5054BDA
:101230001BB105490548AFF30080BDE80840FFF742
:10124000CFBF00BF000000003C090020303D010876
:1012500008B50E480E4B03600323436000238360F0
:10126000C3604FF4002202614FF4401242610376E2
:10127000012242768376C3760377427704F054FCEA
:1012800000B908BD01F028F8FBE700BF8009002085
:101290000064004008B50E480E4B03600323436012
:1012A00000238360C3604FF4002202614FF44012B8
:1012B00042610376012242768376C37603774277D2
:1012C00004F032FC00B908BD01F006F8FBE700BFEE
:1012D000580900200068004010B58AB0002305932B
:1012E000069307930893099303684E4A934204D0E8
:1012F0004D4A934246D00AB010BD4C4A13680133A0
:101300001360012B31D000240194494B1A6B42F039
:1013100002021A631B6B03F002030193019B4FF45B
:10132000407305930223069303230893092309932B
:1013300005A9404805F082FC22460521132005F04E
:1013400021F8132005F02EF822460521142005F07F
:1013500019F8142005F026F822460521152005F07D
:1013600011F8152005F01EF8C5E700230093304B57
:101370001A6C42F000721A641B6C03F00073009345
:10138000009BC0E700230293294B1A6C42F0806255
:101390001A641B6C03F080630293029B234A136858
:1013A00001331360012B30D000240494204B1A6BBE
:1013B00042F002021A631B6B03F002030493049BC6
:1013C00060230593022306930323089309230993BB
:1013D00005A9184805F032FC224605213F2004F0FB
:1013E000D1FF3F2004F0DEFF22460521402004F01B
:1013F000C9FF402004F0D6FF22460521412004F019
:10140000C1FF412004F0CEFF75E700230393084B92
:101410001A6C42F000721A641B6C03F000730393A1
:10142000039BC1E7006400400068004054090020AD
:10143000003802400004024038B5BC2300FB03F32F
:10144000134AD358032B15D0022B19D0BC2303FB0E
:1014500000F404F120000E4D2844043001F012FD88
:1014600004F158002844083001F00CFD2544012304
:101470002B7338BDBC2101FB0022516D9165E3E760
:10148000034BBC2202FB003300225A61DEE700BF9F
:10149000D0090020034BBC2202FB003300221A7348
:1014A000704700BFD009002010B50446114B1B5CEB
:1014B000012B0ED0022B14D0032B09D10221BC200A
:1014C0000D4B00FB043000F081FA2046FFF7B4FF1B
:1014D00010BD0221BC20084B00FB043000F0C6F90F
:1014E000F3E70221BC20044B00FB043000F01AFAA1
:1014F000EBE700BF04000020D009002010B582B047
:1015000004460191164B1B5C012B19D0022B1FD0F6
:10151000032B13D10321BC20124B00FB043000F03D
:1015200055FA104BBC2202FB0433DDED017AF8EED4
:10153000E77AC3ED177A2046FFF77EFF02B010BDB1
:101540000321BC20074B00FB043000F08FF9E8E7D3
:101550000321BC20034B00FB043000F0E3F9E0E77B
:1015600004000020D0090020F0B583B00191144B95
:101570001B5C012B01D003B0F0BD0446114FBC250C
:1015800000FB05F57E1903237B5100233361736152
:10159000736DB36505F158003844083001F072FCF2
:1015A00005F120003844043001F06CFCDDED017AD7
:1015B000F8EEE77AC6ED177A2046FFF73DFFDAE747
:1015C00004000020D009002010B50446114B1B5C1C
:1015D000012B0ED0022B14D0032B09D10121BC20EA
:1015E0000D4B00FB043000F0F1F92046FFF724FF1B
:1015F00010BD0121BC20084B00FB043000F036F97F
:10160000F3E70121BC20044B00FB043000F08AF911
:10161000EBE700BF04000020D00900200F4B1B5C4B
:10162000012B00D0704770B504460D4EBC2500FB61
:1016300005F573190522725100225A6105F158000F
:101640003044083001F01EFC05F120003044043025
:1016500001F018FC2046FFF7EFFE70BD04000020EB
:10166000D00900202DE9F04182B004460D4610EE6D
:10167000106A3046FEF708FFCDE900012B462246EE
:101680002D492E4807F0B0FC2D4B1B5D012B29D0B6
:10169000022B3CD0032B22D1BC2704FB07F707F118
:1016A0005800DFF8A0804044083001F0EBFB07F160
:1016B00020004044043001F0E5FB042348F80730E3
:1016C000204BBC2202FB0433C3F8A06007EE905A03
:1016D000F8EEE77AC3ED277A2046FFF7ADFE02B0B9
:1016E000BDE8F081BC2704FB07F707F15800DFF8DD
:1016F00054804044083001F0C5FB07F1200040440D
:10170000043001F0BFFB042348F80730D8E7BC27BA
:1017100004FB07F707F15800DFF828804044083041
:1017200001F0B0FB07F120004044043001F0AAFBB7
:10173000042348F80730C3E7383E0108CC0E0020E8
:1017400004000020D009002010B500EE101AB8EEF9
:10175000C00ADFED087A20EE270A074CBC2303FB02
:10176000004484ED050AD4ED060A00F077FA84ED12
:10177000050A10BD63CF0B3ED009002038B50446E2
:101780000D460B4602460D490D4807F02DFC284634
:10179000FEF768FE00220B4BFEF7F8FF00220A4B13
:1017A000FEF7CAFEFFF78AF9084ABC2303FB0422AE
:1017B00090650123C2F88C3038BD00BF5C3E010843
:1017C000CC0E0020008076400000C040D0090020F0
:1017D00010B507EE901AF8EEE77A9FED087A87EEDB
:1017E000870A074CBC2303FB004484ED250AD4ED93
:1017F000240A00F033FA84ED250A10BD00007A4473
:10180000D0090020054BBC2202FB003393ED040AF3
:10181000DFED037A80EE270A704700BFD009002071
:1018200063CF0B3E00EB8000044B03EB8003B3F966
:10183000103000EE103AB8EEC00A7047C00C00201D
:10184000074BBC2202FB0033D3ED157A9FED057ADE
:1018500067EE877A9FED040A27EE800A704700BF83
:10186000D0090020000000390000B44338B5044618
:101870000D463C22002154300CF0E2FC0021C4F85B
:101880009010C4F89410C4F89810442204F1100089
:101890000CF0D6FCA4464CF8245B1C4DAE46BEE8CA
:1018A0000F00ACE80F00BEE80F00ACE80F009EE8A8
:1018B00003008CE80300F3EE057AC4ED147A144BB0
:1018C000A36104F1600E05F1280CBCE80F00AEE83E
:1018D0000F00BCE80F00AEE80F009CE803008EE8A4
:1018E0000300C4ED247A4FF07E53C4F8A030094BB6
:1018F000E365094BC4F89C304FF40053C4F8B03092
:10190000064BE361064B236238BD00BF483D01082A
:1019100000401C4600004842000048C20050C3C7B7
:1019200000409CC638B505460C463C220021543088
:101930000CF086FC0021C5F89010C5F89410C5F88D
:101940009810442205F110000CF07AFCAC464CF8DB
:10195000244B1A4C04F1500EBEE80F00ACE80F0007
:10196000BEE80F00ACE80F009EE803008CE803001F
:10197000F2EE007AC5ED147A114BAB6105F1600E01
:1019800004F1780CBCE80F00AEE80F00BCE80F00D3
:10199000AEE80F009CE803008EE80300C5ED247A52
:1019A0004FF07E53C5F8A030064BEB65064BC5F8EB
:1019B0009C304FF40053C5F8B03038BD483D0108A5
:1019C00000401C4600004842000048C238B50546A9
:1019D0000C463C22002154300CF032FC0021C5F8AA
:1019E0009010C5F89410C5F89810442205F1100025
:1019F0000CF026FCAC464CF8244B1A4C04F1A00E1B
:101A0000BEE80F00ACE80F00BEE80F00ACE80F0026
:101A10009EE803008CE80300F3EE0E7AC5ED147A1D
:101A2000114BAB6105F1600E04F1C80CBCE80F006E
:101A3000AEE80F00BCE80F00AEE80F009CE8030022
:101A40008EE80300C5ED247A4FF07E53C5F8A03030
:101A5000C5ED177A054BC5F89C304FF40053C5F817
:101A6000B03038BD483D010800401C46000048C267
:101A700038B500F0ADFE002407E03B4B1B5D22466D
:101A80003A493B4807F0B0FA0134032CF5DD002455
:101A900007E0384B1B5D22463749354807F0A4FA6A
:101AA0000134032CF5DD002408E0344B53F82430D6
:101AB000224633492E4807F097FA0134032CF4DD0F
:101AC00000240FE02B4B195DBC202E4B00FB043093
:101AD000FFF7CCFE2046FFF7AFFC264B1B5D032B28
:101AE00033D02C46032C3EDC651C264BBC2202FB6B
:101AF0000433C3F8B8501C4B1B5D04EB8402910007
:101B0000214A0A441372012BDCD0022B0DD0032B87
:101B100017D1184B195DBC201A4B00FB0430FFF79E
:101B200055FF2046FFF788FCD7E7124B195DBC2014
:101B3000144B00FB0430FFF7F5FE2046FFF77CFC5A
:101B4000CBE72046FFF7A6FCCBE70C4B03EB840367
:101B5000D3ED007A0B4BBC2202FB0433F8EEE77A9C
:101B6000C3ED177ABDE738BD040000207C3E0108B4
:101B7000CC0E002000000020943E0108100D002033
:101B8000B03E0108D0090020C00C002000B50A6852
:101B90004B68D31A4A60D0F8B02002EBD27E4FEAED
:101BA0006E0CB3EB6E0F00DD9B1ACCF1000C63459D
:101BB00000DA134490ED157A07EE903AF8EEE77AE2
:101BC00077EE877AC0ED157AD1ED037AF8EEE77AF1
:101BD0009FED037A67EE877AC0ED047A5DF804FB27
:101BE00063CF0B3E10B582B00446024609490A484D
:101BF00007F0FAF90123ADF800301C44ADF80240BB
:101C00006B4640F286220021044806F08FFD02B0A8
:101C100010BD00BFC83E0108CC0E002058090020AE
:101C200010B582B00446024609490A4807F0DCF9BB
:101C30000123ADF800301C44ADF802406B4640F281
:101C400085220021044806F071FD02B010BD00BFDE
:101C5000C83E0108CC0E002058090020F0EE407A62
:101C6000B4EEE00AF1EE10FA01DDF0EE607AB1EECA
:101C7000600AB4EEE70AF1EE10FA01DCB0EE670A92
:101C80007047000010B50446836B73B1D0ED017A44
:101C900090ED007A77EEC77AF0EEE77A9FED0D7A55
:101CA000F4EEC77AF1EE10FA0ED4D4ED000A94EDFA
:101CB000010A04F10C0001F08BF8D4ED020AFFF7E1
:101CC000CDFF84ED0D0A10BD002383630846FFF7A6
:101CD00089FFEAE70000C84210B50446D0ED000ACB
:101CE00090ED010A143001F073F8D4ED100AFFF7FB
:101CF000B5FF84ED0F0A10BD10B5044690ED037AD0
:101D0000DFED357A77EE677AF4EEC07AF1EE10FA0D
:101D100006DDD0ED017AF5EEC07AF1EE10FA38D496
:101D2000B4EEC07AF1EE10FA06DDD4ED017AF5EEEC
:101D3000C07AF1EE10FA34D494ED047ADFED267A0D
:101D400077EE277AF4EEC07AF1EE10FA06D5D4EDEC
:101D5000017AF5EEC07AF1EE10FA2BDCB4EEC07A1F
:101D6000F1EE10FA06D5D4ED017AF5EEC07AF1EE77
:101D700010FA28DCD4ED000A94ED010A04F11400F5
:101D800001F026F8D4ED100AFFF768FF84ED0F0A82
:101D900010BD1430D4ED000AB1EE670A01F018F856
:101DA000F0E720461430D4ED000A9FED0C0A01F054
:101DB0000FF8E7E720461430D4ED000AB1EE670AC9
:101DC00001F006F8DEE720461430D4ED000A9FED5E
:101DD000030A00F0FDFFD5E700007A440000000090
:101DE00038B52DED028B0446D0F89C30436110309D
:101DF000FFF772FFD4ED280AFFF730FFB0EE408AFC
:101E0000D4ED047AF0EEE77AB0EE007AF4EEC77A19
:101E1000F1EE10FA0ED8D4F8A8300133C4F8A83087
:101E2000D4F8A830B3F5FA7F08DAB0EE480ABDEC72
:101E3000028B38BD0023C4F8A830F1E714491548D7
:101E400007F0D2F8144BE31A9B10144803FB00F080
:101E5000FFF7E6FE0025C4F89C50C4F8A050C4F873
:101E6000A450C4F8A850C4F8AC5000236365A3651F
:101E70006361E36404F1240001F004F804F16000FC
:101E800001F000F803232360C4F88C50CDE700BFB5
:101E9000D83E0108CC0E0020D0090020CF467D6737
:101EA000F8B54FF0FF31824B186801F01AF90024A1
:101EB00000E00134032C11DC04EB84027D4B03EBC6
:101EC00082031B7AFF2BF4D07A4B03EB8201BC20F8
:101ED000794B00FB0430FFF759FEEAE7744B1868B2
:101EE00001F02EF9002405E0734B02FB04330022BD
:101EF0009A600134032C5EDC04EB84026D4B03EB2F
:101F000082031B7AFF2BF4D06B4BBC2202FB043301
:101F10001B7B012BE8D1BC2304FB03F3664AD35897
:101F2000013B042BE5D8DFE803F02619032E380027
:101F3000BC2504FB05F505F150005F4E30442146F9
:101F40000430FFF79FFE771987ED050A05F11000B1
:101F50003044FFF7C1FE87ED020ACAE7BC2604FB46
:101F600006F606F11000544D2844FFF7B5FE35443F
:101F700085ED020ABDE7504BBC2202FB0433D3F8C7
:101F800094209A60B5E7BC234B4D03FB04552846CB
:101F9000FFF726FF85ED020AABE74748BC2304FBA9
:101FA00003F3C518103395ED150A1844FFF7A4FE86
:101FB00085ED020A9DE7002313E03F4ABC2101FBA7
:101FC0000322D2ED027A9FED3D7A67EE877AF3EE37
:101FD000046A87EEA67A3A4A02EB830282ED007A1F
:101FE0000133032B39DC03EB8301324A02EB81021C
:101FF000127A012AE1D0022A07D0032A19D0304AE6
:1020000002EB830200211160EAE72B4ABC2101FBAD
:102010000322D2ED027A9FED2B7A67EE877AF2EEF9
:10202000046A87EEA67A264A02EB830282ED007AE2
:10203000D6E7214ABC2101FB0322D2ED027A9FEDB3
:10204000227A67EE877AF3EE0E6A87EEA67A1C4A4A
:1020500002EB830282ED007AC2E7194800F01AFA17
:102060001A4A136801331360194A116851B11948AB
:1020700080FB0320DA17C2EBE00202EB8202B3EB33
:10208000820F00D0F8BD01390B4BBC2202FB01339B
:102090001A69114802605A6D42605B698360084B9F
:1020A00003EB81031B68C360042100F075FDE9E7C1
:1020B000240D0020C00C0020D00900200000804624
:1020C000C009002000401C460060EA46A809002024
:1020D000AC09002067666666B009002010B582B0C2
:1020E000002401940D4B1A6B42F400121A631B6B0F
:1020F00003F400130193019B224605210C2004F0F8
:1021000041F90C2004F04EF9224605210E2004F07E
:1021100039F90E2004F046F902B010BD0038024033
:1021200008B500F082FF000008B506F019F91B4859
:1021300000F08EFF1A4B18601A4A0121084601F080
:1021400026F8194B1860194A1021082001F0DBF815
:10215000174B1860174A1021082001F0D4F8164BCD
:102160001860164A0021164800F000FF154B186051
:10217000154A0021154800F0F9FE154B1860154A64
:102180000021154800F0F2FE144B1860144A00219B
:10219000144800F0EBFE144B186008BD783F0108AE
:1021A000240D0020683F0108200D0020A03F0108F9
:1021B0002C0D0020883F0108280D00202440010834
:1021C000212100083C0D0020004001088D2400085A
:1021D000380D0020DC3F0108C1230008340D002029
:1021E000B83F0108D9260008300D002030B58BB06B
:1021F00000240594069407940894099401941E4BB6
:102200001A6B42F004021A631A6B02F00402019284
:10221000019A02941A6B42F080021A631A6B02F060
:1022200080020292029A03941A6B42F001021A632E
:102230001A6B02F001020392039A04941A6B42F0A3
:1022400002021A631B6B03F002030493049B0B4D01
:1022500022464FF40051284604F0E6FD4FF40053A7
:102260000593012306930794089405A9284604F0D2
:10227000E5FC0BB030BD00BF003802400008024052
:1022800010B504460368B3F1804F04D022680E4BAA
:102290009A4216D010BD0D4A1368013313600C49E1
:1022A00081FB0321DA17C2EB61124FF4FA7101FBD3
:1022B0001232002AEAD14FF40051064804F0BAFD68
:1022C000E4E703F01FFCE5E700200040400D00209C
:1022D000D34D62100008024072B6FEE700B595B01B
:1022E0003022002108A80BF0ABFF002303930493D6
:1022F0000593069307930193204A116C41F0805196
:102300001164126C02F080520192019A02931C4BEC
:102310001A6842F480421A601B6803F480430293F7
:10232000029B012308934FF48033099302220E92FB
:102330004FF480030F9304231093A821119112925C
:10234000139308A804F080FD98B90F230393022388
:102350000493002305934FF4A05306934FF4805346
:102360000793052103A804F0D9FF20B915B05DF843
:1023700004FBFFF7B1FFFFF7AFFF00BF00380240DB
:102380000070004008B503F0A3FBFFF7A7FFFFF7BD
:102390002DFFFFF7A3FEFEF75BFF00F081FCFEF7C9
:1023A00079FF00F08BFB054805F0DCF800F0A6FD96
:1023B000FFF7BAFE00F0B4FDFEE700BFC40D002039
:1023C00070B5002304E02B4A012142F823100B448E
:1023D000032BF8DDFFF74CFB01E0002C46D0264C28
:1023E0004FF0FF33002221462448006801F018F81E
:1023F0002478013CE4B2032C3BD8214D4FF0FF314F
:10240000286800F06EFE1C4B1A7A587A00EB022006
:102410001C4E04EB84018A00B118B0509A7A120263
:10242000D87A00FA82F2CA60187B5A7B02EB00224B
:102430000A8293F90E308B74286800F081FE0D4BF0
:1024400053F82430002BC8D00A4B002243F8242034
:102450000D4BBC2202FB043300225A65334604EBC9
:1024600084018A00B05813445860B6E7FFF718FD9E
:10247000B5E770BD680D0020580D00202C0D002020
:10248000240D0020C00C0020D009002008B500F069
:10249000CCFD000000B585B00023009301930DE052
:1024A00000EB8302D2ED007AFDEEE77A04AA02EB9C
:1024B000430217EE901A22F8101C0133032BEFDDB4
:1024C000BDF900309DF901208DF808208DF8093004
:1024D000BDF902309DF903208DF80A208DF80B30EC
:1024E000BDF904309DF905208DF80C208DF80D30D4
:1024F000BDF906309DF907208DF80E208DF80F30BC
:1025000002AB4FF400720021024806F00FF905B04B
:102510005DF804FB800900202DE9F04186B00446F7
:10252000FFF770F9BDEEC00A10EE103A1DB205F5C6
:1025300000573FB22046FFF783F910EE108A20467D
:10254000FFF770F9BDEEC00A10EE103A1EB2029607
:102550004046FDF799FFCDE900012A460E490F4894
:1025600006F042FDA401E4B28DF81040C7F3052740
:102570003C438DF810408DF81150ADF81260CDF845
:10258000148004AB40F281220021054806F0CEF809
:1025900006B0BDE8F08100BF48400108CC0E002025
:1025A0005809002008B5038842884168B0F904C082
:1025B000B0F9060007EE900AF8EEE77A9FED1C7A74
:1025C00087EE870A581E80B203280DD8531E0D2BA4
:1025D0000AD8DFE803F0070A0D101316191C1F09AB
:1025E00009222629FEF728FF08BDFEF753FFFBE767
:1025F000FEF75AFFF8E7FEF781FFF5E7FEF7E4FF85
:10260000F2E7FFF7A1F8EFE7FFF7B8F8ECE7FFF71D
:10261000DFF8E9E7FFF780FFE6E76146FFF722F81A
:10262000E2E7FEF7FBFFDFE7FEF79EFFDCE700BF18
:1026300000007A4438B5054600240BE035F9142033
:102640000849094806F0D0FC35F914102046FFF778
:102650007BF80134032CF1DD0449034806F0C4FC87
:1026600038BD00BF58400108CC0E0020784B01084F
:1026700038B5054600241CE035F9142012491348EA
:1026800006F0B2FC35F91400FDF7ECFE0CA3D3E91B
:102690000023FDF751FFFEF7E9F901462046FFF759
:1026A0006DF80B4BBC2202FB04330022C3F88C20D4
:1026B0000134032CE0DD0749044806F095FC38BDE1
:1026C000CDCCCCCCCC98894058400108CC0E002011
:1026D000D0090020784B010808B502E01048FFF748
:1026E000A9FF104C4FF0FF33002221460E4800682E
:1026F00000F096FE236840F205229342EED040F2AD
:102700000922934208D040F201229342E9D104F118
:102710000800FFF747FFE4E70148FFF7A9FFE0E7FC
:10272000500D0020480D0020280D002010B586B067
:1027300004F042F90023019305230393012304933A
:1027400002230593694601A804F02EFA08B9002473
:1027500010E004F049F94FF0FF302DE0A100174BD5
:102760001A5D002301F1006101F50031022004F03F
:1027700075F90134032CF1DD002409E0104B1A5DDA
:102780000023104901EB8401022004F067F90134B1
:10279000032CF3DD00240AE00B4B53F82420002324
:1027A0000A4901EB8401022004F058F90134032C9A
:1027B000F2DD04F019F9002006B010BD040000207D
:1027C0000000002010000208100D00202000020868
:1027D000002208E0930003F1006303F50033197849
:1027E0000D4B99540132032AF4DD002305E00B4A16
:1027F00012F823100A4AD1540133032BF7DD0023CA
:1028000006E0084A52F82310074A42F82310013321
:10281000032BF6DD002070470400002010000208A2
:102820000000002020000208100D002000B583B039
:10283000002200920D4B596C41F480415964596C4F
:1028400001F48041009100990192196C41F080518E
:1028500019641B6C03F080530193019B0F216FF0EF
:10286000010003F08FFD03B05DF804FB0038024067
:1028700030B589B0044600230193214B1A6C42F411
:1028800080721A641B6C03F480730193019B02A98C
:1028900003A804F019FE069BCBB904F0F5FD03462E
:1028A000184AA2FB03239B0C013B1748174A0260FE
:1028B00040F2E732C26043600023036183608361BA
:1028C00004F0BAFF054630B1284609B030BD04F027
:1028D000DBFD4300E4E70C4804F044FE0546002815
:1028E000F2D12D2003F05EFD0F2C01D90125EBE77D
:1028F000002221462D2003F045FD054B1C60E3E737
:102900000038024083DE1B43780D00200020004089
:1029100014000020FEE7FEE7FEE7FEE7FEE7704753
:1029200008B5024803F0C4FE08BD00BF6C0E0020CD
:1029300008B5024803F0BCFE08BD00BF0C0E002025
:1029400008B5024803F0B3FB08BD00BF80090020B2
:1029500008B5024803F0ABFB08BD00BF80090020AA
:1029600008B5024803F0A3FB08BD00BF80090020A2
:1029700008B5024804F03EFE08BD00BFC40D0020AB
:1029800008B5074B1B681B6813F0100F03D00448F1
:1029900006F09AFA08BD024805F0A2FAFAE700BF6D
:1029A000CC0E002008B5024804F024FE08BD00BF8C
:1029B000780D002008B5024803F079FB08BD00BF80
:1029C0005809002008B5024803F071FB08BD00BF9C
:1029D0005809002008B5024803F069FB08BD00BF94
:1029E000580900200120704708B50BF097FF162307
:1029F00003604FF0FF3008BD08B54FF0FF31FFF71F
:102A0000F3FFFEE770B50C461646002506E0AFF36F
:102A10000080214601F8010B01350C46B542F6DB7A
:102A2000304670BD70B50C461646002504E014F81B
:102A3000010BAFF300800135B542F8DB304670BDC5
:102A40004FF0FF3070474FF400534B600020704749
:102A5000012070470020704710B503460C4A0D490D
:102A60000D48006840B10C4800680344521A934274
:102A700006D8094A136010BD0748084C0460F2E705
:102A80000BF04CFF0C2303604FF0FF30F3E700BF67
:102A90000000022000120000C00D0020506E002037
:102AA000054BD3F8882042F47002C3F888204FF019
:102AB00000629A60704700BF00ED00E000B587B08B
:102AC0000023029303930493059300930193154805
:102AD0004FF08042026042F2CF02426083600922DE
:102AE000C2600361836104F0A7FE90B94FF4805384
:102AF000029302A90B4804F0D8FE68B900230093A2
:102B000001936946074804F04FFF40B907B05DF8EC
:102B100004FBFFF7E1FBE9E7FFF7DEFBEEE7FFF77A
:102B2000DBFBF3E7C40D00200368B3F1804F00D056
:102B3000704700B583B00022019203F50E33196C83
:102B400041F0010119641B6C03F001030193019B27
:102B500005211C2003F016FC1C2003F023FC03B00D
:102B60005DF804FB034600208446884211D210B46D
:102B700013F8012B82EA1022064C34F8122082EA64
:102B8000002080B20CF1010C8C45F1D35DF8044BB0
:102B900070477047744001082DE9F04F9DB00190D7
:102BA0004B1E072B74D88B4667238DF83C304FF0B3
:102BB0000008012443E0019B03EB88052868FDF72A
:102BC00063FC06460F460022334BFDF7B5FCFDF7CC
:102BD0004DFF001604F170036B4403F8340C00221F
:102BE0002D4B30463946FDF7A7FCFDF73FFF00149B
:102BF00004F171030DEB030A0AF8340C0022264B92
:102C000030463946FDF798FCFDF730FF001204F11D
:102C100072030DEB030909F8340C2868FDF734FC46
:102C200000221D4BFDF788FCFDF720FF04F1730324
:102C30000DEB0306043406F8340C08F10108D845FE
:102C4000B9DB02238DF808308DF8094022460FA920
:102C50000DF10A00FEF764F921460FA8FFF782FF85
:102C6000C0F3072304F172010DEB010505F8683C80
:102C700004F173026A4402F8680C04F174036B44B3
:102C8000032203F8682C621D02A9044806F0F0F93B
:102C90001DB0BDE8F08F00BF00005940CC0E0020F1
:102CA00008B50A480A4B03604FF4E1334360002340
:102CB0008360C36003610C2242618361C36104F0DD
:102CC000B1FF00B908BDFFF707FBFBE7CC0E002002
:102CD0000048004030B589B0002303930493059366
:102CE000069307930268344B9A4201D009B030BD75
:102CF00004460025019503F5F8331A6C42F480224E
:102D00001A641A6C02F480220192019A02951A6BDD
:102D100042F004021A631B6B03F004030293029B4C
:102D20004FF4406303930223049303230693072382
:102D3000079303A9214803F081FF2148214B036039
:102D40004FF0006343608560C5604FF480630361AA
:102D5000456185614FF48073C3610562456203F08C
:102D6000AFFB18BB164BA3639C631748174B03605C
:102D70004FF000634360402383600023C3604FF43F
:102D80008062026143618361C3610362436203F055
:102D900097FB70B90C4B63639C63002205212720CD
:102DA00003F0F0FA272003F0FDFA9FE7FFF794FA0B
:102DB000D8E7FFF791FAEDE700480040000802402D
:102DC0006C0E0020286002400C0E0020586002406B
:102DD00030EE600AD0ED047A70EE677A9FED277AC4
:102DE00067EE877A90ED077ADFED256A27EE267A7F
:102DF00037EE277A80ED040AD0ED037AD0ED086A29
:102E000066EE806A77EEA67AC0ED037AD0ED066AA8
:102E1000F4EEE67AF1EE10FA26DDC0ED036A80EDFD
:102E2000077AD0ED007A67EE807AD0ED016A26EE5F
:102E3000877A77EE877A90ED037AD0ED026A27EEF3
:102E4000267A77EE877A90ED090AB4EEE70AF1EE7A
:102E500010FA08D4B1EE400AB4EEE70AF1EE10FA27
:102E600001DCB0EE670A7047F1EE666AF4EEE67ACE
:102E7000F1EE10FAD3D5C0ED036AD0E7A69BC43EAD
:102E8000A4701D3F0023C3600361C361704700004D
:102E9000DFF834D0002103E00C4B5B584350043181
:102EA0000B480C4B42189A42F6D30B4A02E000231F
:102EB00042F8043B094B9A42F9D3FFF7F1FD0BF0BE
:102EC00033FDFFF75FFA7047000002209C5A0108AB
:102ED0000000002038090020380900204C6E002036
:102EE000FEE708B54FF0E0231B6902F067FA0128FE
:102EF00000D108BD00F00EFCFBE70000EFF30583F6
:102F00002BB9064B186828B901221A6070476FF078
:102F1000050070474FF0FF30704700BF10180020C9
:102F2000EFF3058373B90A4B1B68012B0DD110B564
:102F30000024084BDC77064B02221A6001F0BAFE2F
:102F4000204610BD6FF0050070474FF0FF3070470E
:102F50001018002000ED00E008B5EFF3058313B171
:102F600001F00CFF08BD01F003FFFBE7F0B587B0EF
:102F700000240594EFF305847CBB70B32AB3156875
:102F8000936903B918235C1E372C4AD8546814F08F
:102F9000010F48D1566976B14FEA960C946834B166
:102FA000D768B7F5C07F02D3176907B1C6B92CB18E
:102FB0004FF0FF340EE04FF0800CEFE7D4688CB98F
:102FC000146994B14FF0FF3404E01546002418232F
:102FD0004FF0800C012C0AD0ACB1059807B0F0BDC1
:102FE0000124F7E74FF0FF34F4E70024F2E7146917
:102FF00092680292019400930B466246294601F0C2
:1030000044FD0590E9E705AA019200930B461FFADB
:103010008CF2294601F076FD0128DED000230593CD
:10302000DBE70020DAE70020D8E708B5002001F050
:103030009DFDFEE708B5EFF3058333B908B900201D
:1030400008BD01F0ABFF0020FAE76FF00500F7E7DD
:1030500070B5EFF30583002B3CD1044600B1436803
:1030600013F0010600D0012613F0080F35D144B348
:10307000A16811B1E3684F2B18D891B14FF0FF331D
:103080006BBB16B3042000F0CDFF05461DB304B1A1
:1030900024682146284601F0B9FAE6B145F0010559
:1030A00019E0E3687BB14FF0FF33E9E726B1042074
:1030B00000F0C3FF0546E9E7012000F0BEFF05462A
:1030C000E4E70023DCE70023DAE7012000F0AAFFB1
:1030D0000546DBE70025284670BD0025FBE70025F7
:1030E000F9E7EFF30582DAB910B503460C4620F094
:1030F000010003F00101012B15D941B1214601F076
:103100000DFA012812D09CB16FF001000FE02146AA
:1031100001F031F901280ED07CB16FF0010006E01A
:103120006FF0050070476FF0030000E0002010BD55
:103130006FF00200FBE70020F9E76FF00200F6E70E
:10314000EFF30582BAB908B5034620F0010003F099
:103150000101012B12D929B100F07EFF012810D105
:10316000002008BD00231A46194600F08BFE0128F6
:103170000AD10020F5E76FF0050070476FF00300FB
:10318000EFE76FF00200ECE76FF00200E9E770B5DF
:1031900082B0EFF30583002B48D10E461446002879
:1031A00048D0884248D34AB1956815B1D3684F2BAF
:1031B00014D8002D42D1E3680BB138E00023012878
:1031C0000ED06BBB314600F03FFE05467DB304B127
:1031D00024682146284601F019FA28E00123EEE789
:1031E000ABB903220021012000F0E7FD0546F5B14F
:1031F000002EEBD000231A461946284600F042FE66
:103200000128E3D0284601F02BFA00250FE0A3683F
:10321000032200920022114600F085FD0546E6E7F4
:10322000A268314600F0EDFD0546CFE700252846AF
:1032300002B070BD0025FAE70025F8E70025F6E7A3
:1032400020B310B582B00C46EFF30583B3B101BBD8
:103250000021019101AA01F081F901281CD10198F6
:1032600050B14FF0E0234FF08052C3F8042DBFF36C
:103270004F8FBFF36F8F002002B010BD01F07BF8BD
:1032800001280CD06CB16FF00100F5E76FF003007E
:1032900070476FF00300EFE76FF00200ECE70020EB
:1032A000EAE76FF00200E7E720B300B583B0EFF381
:1032B0000583A3B10023019301A900F054FF012865
:1032C0001BD1019898B14FF0E0234FF08052C3F822
:1032D000042DBFF34F8FBFF36F8F002007E0002353
:1032E0001A46194600F0CEFD012809D1002003B08E
:1032F0005DF804FB6FF0030070476FF00200F6E723
:103300006FF00200F3E770B582B0EFF30583002B96
:103310003AD1144600283BD000293BD06AB39368C9
:103320004BB1D2684F2A06D9226922B101FB00F5C0
:103330006669AE421BD273B14FF0FF3363BB00220C
:1033400000F03BFD054605B304B12468214628463C
:1033500001F05CF919E0E3688BB9236913B14FF010
:10336000FF33EBE763696BB14FF0FF33E6E700250E
:10337000009500F0D8FC0546E5E70023DEE74FF0B6
:10338000FF33DBE70023D9E70025284602B070BDF4
:103390000025FAE70025F8E70025F6E710B582B02A
:1033A0001C46EFF30583C3B118B329B33CBB00231C
:1033B000019301AA00F070FE012823D1019850B1B9
:1033C0004FF0E0234FF08052C3F8042DBFF34F8F2E
:1033D000BFF36F8F002002B010BDB0B1C1B10023A8
:1033E000224600F04FFD012815D0B4B16FF0010066
:1033F000F1E76FF00300EEE76FF00300EBE76FF02B
:103400000300E8E76FF00200E5E76FF00300E2E792
:103410006FF00300DFE70020DDE76FF00200DAE77E
:1034200010B582B01C46EFF30583C3B110B321B3CE
:1034300034BB0023019301AA01F090F8012822D1A6
:10344000019850B14FF0E0234FF08052C3F8042DA3
:10345000BFF34F8FBFF36F8F002002B010BDA8B134
:10346000B9B1224600F0D8FE012815D0B4B16FF0F2
:103470000100F2E76FF00300EFE76FF00300ECE705
:103480006FF00300E9E76FF00200E6E76FF003007A
:10349000E3E76FF00300E0E70020DEE76FF00200F3
:1034A000DBE70000034B0360034B0B6080231360DA
:1034B000704700BF9016002090140020034B03605B
:1034C000034B0B604FF480731360704710130020A0
:1034D000100F002000F1080343604FF0FF328260BC
:1034E000C3600361002303607047002303617047DA
:1034F00043684B609A688A6051609960086103680C
:1035000001330360704730B40D68B5F1FF3F11D04F
:1035100000F108031C465B681A68AA42FAD963687E
:103520004B6099608C6061600861036801330360DF
:1035300030BC70470469F2E70369416882688A60B9
:10354000416851605A68824206D0002202611A68BE
:10355000013A1A601868704782685A60F5E70000FF
:1035600082B0002301930D4B1B68B3F1FF3F08D0DD
:103570004FF0500383F31188BFF36F8FBFF34F8F6A
:10358000FEE74FF0500383F31188BFF36F8FBFF353
:103590004F8F019B002BFCD002B070470C00002025
:1035A00008480068006880F308884FF0000080F346
:1035B000148862B661B6BFF34F8FBFF36F8F00DF21
:1035C00000BF000008ED00E0DFF80C00016841F4E6
:1035D000700101607047000088ED00E04FF08073DB
:1035E00040F8043C21F0010140F8081C054B40F86C
:1035F0000C3C40F8202C6FF0020340F8243C443887
:10360000704700BF613500080000000000000000A6
:10361000074B19680868B0E8F04F80F30988BFF3DA
:103620006F8F4FF0000080F311887047AFF3008078
:10363000785900204FF0500383F31188BFF36F8F48
:10364000BFF34F8F0B4A136801331360012B00D077
:1036500070474FF0E023D3F8043D13F0FF0FF7D08D
:103660004FF0500383F31188BFF36F8FBFF34F8F79
:10367000FEE700BF0C000020094B1B6843B94FF068
:10368000500383F31188BFF36F8FBFF34F8FFEE7B3
:10369000013B034A13600BB983F31188704700BFE5
:1036A0000C000020000000000000000000000000EE
:1036B000EFF30980BFF36F8F154B1A681EF0100FE0
:1036C00008BF20ED108A20E9F04F10602DE90900B5
:1036D0004FF0500080F31188BFF34F8FBFF36F8F0F
:1036E00001F082FC4FF0000080F3118809BC1968DA
:1036F0000868B0E8F04F1EF0100F08BFB0EC108A59
:1037000080F30988BFF36F8F704700BFAFF300806D
:103710007859002008B54FF0500383F31188BFF3A8
:103720006F8FBFF34F8F01F031FB28B14FF0E023D3
:103730004FF08052C3F8042D002383F3118808BD95
:103740004FF0E022002313619361054B1B6805498C
:10375000A1FB03139B09013B5361072313617047CE
:1037600008000020D34D62104FF0E023D3F8002D65
:103770003D4B9A421CD04FF0E023D3F8002D3B4B39
:103780009A421ED030B583B0394B1A78D2B201922A
:10379000FF221A701B78DBB28DF803309DF80330DE
:1037A00003F05003334A1370334B07221A601BE0B7
:1037B0004FF0500383F31188BFF36F8FBFF34F8F28
:1037C000FEE74FF0500383F31188BFF36F8FBFF311
:1037D0004F8FFEE7284A1368013B13609DF80330C2
:1037E0005B00DBB28DF803309DF8033013F0800FDF
:1037F000F0D1214B1B68032B08D04FF0500383F30B
:103800001188BFF36F8FBFF34F8FFEE71B021A4A79
:10381000136003F4E0631360019BDBB2144A13707E
:103820004FF0E024D4F8203D43F47003C4F8203D69
:10383000D4F8203D43F07043C4F8203DFFF780FFEB
:1038400000250E4B1D60FFF7BFFED4F8343F43F058
:103850004043C4F8343FFFF7A3FE01F0C5FBFFF778
:103860007FFE284603B030BD71C20F4170C20F41C8
:1038700000E400E018180020141800200C000020BC
:10388000EFF305830F2B0FD9114A9B5CDBB2114A72
:1038900012789A4208D94FF0500383F31188BFF38E
:1038A0006F8FBFF34F8FFEE74FF0E023D3F80C3D4F
:1038B00003F4E063084A1268934208D94FF05003BA
:1038C00083F31188BFF36F8FBFF34F8FFEE770470D
:1038D000F0E300E01818002014180020124A12F03B
:1038E000070F1ED0D11D21F00701C1F570531344FD
:1038F0000A460E480260002141601344083B23F051
:1039000007030B48036059601960991A51601360EE
:10391000084B1960084B1960084B4FF000421A60C1
:1039200070474FF47053E4E73C180020341800202F
:1039300030180020281800202C1800201C18002007
:10394000164B1A461B688342FBD3516802EB010CED
:10395000844509D0416800EB010C634509D0036040
:10396000904219D010607047406801445160104681
:10397000F0E710B40A4C2468A3420BD05B681944EA
:10398000416013681B680360904200D010605DF8CE
:10399000044B70470460F7E7704700BF34180020FD
:1039A0003018002038B5044601F0DAF9384B1B68AE
:1039B000B3B1384B1B681C4250D1002C50D004F1DD
:1039C000080214F0070F02D022F007020832002A82
:1039D00055D0314B1B68934253D330490C6804E0F7
:1039E000FFF77CFFE5E721461C466368934202D25D
:1039F0002368002BF7D1264B1B68A34243D00D68E8
:103A0000083523680B6063689B1A102B10D9A01827
:103A100010F0070F08D04FF0500383F31188BFF365
:103A20006F8FBFF34F8FFEE743606260FFF788FF41
:103A3000626819490B689B1A0B60194909688B4227
:103A400001D217490B60134B1B68134363600023BB
:103A50002360144A13680133136002E0002500E07C
:103A6000002501F01FFA15F0070F0ED04FF050039C
:103A700083F31188BFF36F8FBFF34F8FFEE70025ED
:103A8000EFE70025EDE70025EBE7284638BD00BF4E
:103A9000301800201C1800202C180020341800209A
:103AA0002818002024180020002834D038B50446F7
:103AB000A0F1080550F8043C174A1268134208D1D7
:103AC0004FF0500383F31188BFF36F8FBFF34F8F15
:103AD000FEE750F8081C41B14FF0500383F3118802
:103AE000BFF36F8FBFF34F8FFEE723EA020340F867
:103AF000043C01F035F954F8041C084A13680B44DF
:103B000013602846FFF71CFF054A13680133136052
:103B100001F0C8F938BD70471C1800202C1800208F
:103B200020180020014B1868704700BF2C18002097
:103B30000346406A18B11B6B1868C0F13800704723
:103B400010B50446FFF776FDA26BE36B9A4204D0F2
:103B50000024FFF791FD204610BD0124F9E710B5C0
:103B60000446FFF767FDA36B23B90124FFF784FD2B
:103B7000204610BD0024F9E770B504461546866B53
:103B8000026C5AB903681BB100200136A66370BDF0
:103B9000806801F06FFC0023A360F6E76DB9406810
:103BA000FDF7BEF96368226C13446360A268934218
:103BB00019D3236863602846E7E7C068FDF7B0F9CA
:103BC000E368226C51429B1AE3602268934202D25E
:103BD000A3680B44E360022D01D00020D5E726B195
:103BE000013E0020D1E72846CFE70020CDE703467D
:103BF000026C6AB110B50846D9681144D9609C6856
:103C0000A14201D31968D960D968FDF789F910BDBF
:103C1000704738B50546FFF70DFD95F8454064B28D
:103C200001E0013C64B2002C0ADD6B6A43B105F18E
:103C3000240001F05FFA0028F3D001F0EFFAF0E77A
:103C4000FF2385F84530FFF717FDFFF7F3FC95F8E4
:103C5000444064B201E0013C64B2002C0ADD2B69EF
:103C600043B105F1100001F045FA0028F3D001F04E
:103C7000D5FAF0E7FF2385F84430FFF7FDFC38BDA7
:103C800038B5E0B10D460446FFF7D4FC2368E26B7B
:103C9000216C01FB0230A0600020A0636360013A48
:103CA00002FB0133E360FF2384F8443084F845309D
:103CB000FDB9236963B9FFF7DFFC012038BD4FF080
:103CC000500383F31188BFF36F8FBFF34F8FFEE76D
:103CD00004F1100001F00EFA0028ECD04FF0E023C0
:103CE0004FF08052C3F8042DBFF34F8FBFF36F8F97
:103CF000E1E704F11000FFF7EDFB04F12400FFF70A
:103D0000E9FBD8E738B51D46049C0B4649B9246049
:103D1000E063236401212046FFF7B2FF84F84C5092
:103D200038BD2260F4E740B94FF0500383F31188A7
:103D3000BFF36F8FBFF34F8FFEE710B584B01C4603
:103D4000844653B192B189B94FF0500383F311887F
:103D5000BFF36F8FBFF34F8FFEE74FF0500383F336
:103D60001188BFF36F8FBFF34F8FFEE76AB1502307
:103D70000393039B502B13D04FF0500383F3118810
:103D8000BFF36F8FBFF34F8FFEE70029EFD04FF0E7
:103D9000500383F31188BFF36F8FBFF34F8FFEE79C
:103DA000039B012384F8463000949DF81830604648
:103DB000FFF7A8FF204604B010BD40B94FF05003F4
:103DC00083F31188BFF36F8FBFF34F8FFEE7F0B51A
:103DD00083B00D461446064601FB00F05030FFF755
:103DE000E1FD074650B1002380F84630009023469D
:103DF00000F1500229463046FFF784FF384603B0F1
:103E0000F0BD40B94FF0500383F31188BFF36F8FBB
:103E1000BFF34F8FFEE710B582B00C46884208D240
:103E20004FF0500383F31188BFF36F8FBFF34F8FB1
:103E3000FEE702230093134600221146FFF773FFAB
:103E400000B1846302B010BD40B94FF0500383F35A
:103E50001188BFF36F8FBFF34F8FFEE710B50C468D
:103E6000884208D24FF0500383F31188BFF36F8F5D
:103E7000BFF34F8FFEE702220021FFF79EFF00B144
:103E8000846310BDF0B585B0019288B10F461D4620
:103E90000446B1B1022D20D1E36B012B1DD04FF0B0
:103EA000500383F31188BFF36F8FBFF34F8FFEE78B
:103EB0004FF0500383F31188BFF36F8FBFF34F8F21
:103EC000FEE7036C002BE5D04FF0500383F311881D
:103ED000BFF36F8FBFF34F8FFEE701F06FFA064617
:103EE00058B9019B002B48D04FF0500383F3118841
:103EF000BFF36F8FBFF34F8FFEE700263DE02A46EA
:103F000039462046FFF738FE636A7BB948B14FF067
:103F1000E0234FF08052C3F8042DBFF34F8FBFF35F
:103F20006F8FFFF7A9FB012005B0F0BD04F124005D
:103F300001F0E0F80028F4D04FF0E0234FF0805279
:103F4000C3F8042DBFF34F8FBFF36F8FE9E7FFF77F
:103F500093FB0020E8E702A801F012F9012619E01E
:103F6000002384F8443021E0002384F8453023E026
:103F70002046FFF74EFE00F095FFFFF75BFBA26BBC
:103F8000E36B9A42BBD3022DB9D0019B002BDED04C
:103F9000002EE0D0FFF770FB00F0E2FEFFF74AFBD7
:103FA00094F8442052B2B2F1FF3FD9D094F84520A2
:103FB00052B2B2F1FF3FD7D0FFF75EFB01A902A8D2
:103FC00001F0EAF8D8B92046FFF7BAFD0028CFD0B3
:103FD000019904F1100001F059F82046FFF719FE8D
:103FE00000F060FF0028C8D14FF0E0234FF080526E
:103FF000C3F8042DBFF34F8FBFF36F8FBDE720468B
:10400000FFF707FE00F04EFF00208DE748B108B52E
:10401000002181600160C1600B460A46FFF732FF54
:1040200008BD704710B5024600210120FFF7C5FE0C
:104030000446FFF7EBFF204610BD10B582B00B46DB
:104040000090002211460120FFF76DFE0446FFF7A5
:10405000DDFF204602B010BD38B538B10446856892
:1040600001F0A6F985420AD0002038BD4FF0500378
:1040700083F31188BFF36F8FBFF34F8FFEE7E368C1
:10408000013BE3600BB10120EFE71A4619462046D9
:10409000FFF7F8FE0120E8E72DE9F84390B10F465D
:1040A00016461C460546B1B1022C20D1EB6B012B04
:1040B0001DD04FF0500383F31188BFF36F8FBFF310
:1040C0004F8FFEE74FF0500383F31188BFF36F8FDC
:1040D000BFF34F8FFEE7036C002BE5D04FF050038A
:1040E00083F31188BFF36F8FBFF34F8FFEE7FFF7A6
:1040F000C7FBEFF311884FF0500383F31188BFF330
:104100006F8FBFF34F8FAA6BEB6B9A4206D3022CD3
:1041100004D0002088F31188BDE8F88395F8459015
:104120004FFA89F9AB6B224639462846FFF724FD42
:10413000B9F1FF3F06D009F101035BB285F84530C4
:104140000120E7E76B6A0BB90120E3E705F12400E2
:1041500000F0D0FF18B126B101203060DAE701206D
:10416000D8E70120D6E768B170B50C460546036C68
:104170008BB14FF0500383F31188BFF36F8FBFF300
:104180004F8FFEE74FF0500383F31188BFF36F8F1B
:10419000BFF34F8FFEE70368EBB1FFF771FBEFF35F
:1041A00011864FF0500383F31188BFF36F8FBFF375
:1041B0004F8FAA6BEB6B934226D995F845305BB2D3
:1041C0000132AA63B3F1FF3F11D001335BB285F82E
:1041D0004530012019E08368002BDED04FF05003FA
:1041E00083F31188BFF36F8FBFF34F8FFEE76B6AC6
:1041F0000BB9012009E005F1240000F07BFF38B184
:1042000044B10120206000E0002086F3118870BDD9
:104210000120FAE70120F8E7F0B585B0019290B1EE
:104220000F460446C1B101F0C9F8064600BB019B28
:10423000002B5ED04FF0500383F31188BFF36F8FD4
:10424000BFF34F8FFEE74FF0500383F31188BFF3A6
:104250006F8FBFF34F8FFEE7036C002BE3D04FF05F
:10426000500383F31188BFF36F8FBFF34F8FFEE7C7
:1042700000263EE039462046FFF7B9FC013DA56324
:10428000236923B9FFF7F8F9012005B0F0BD04F167
:10429000100000F02FFF0028F4D04FF0E0234FF083
:1042A0008052C3F8042DBFF34F8FBFF36F8FE9E740
:1042B000FFF7E2F90020E8E702A800F061FF01261D
:1042C00021E0002384F8443029E0002384F84530BD
:1042D0002BE02046FFF79DFC00F0E4FD09E02046BE
:1042E000FFF797FC00F0DEFD2046FFF738FC0028C2
:1042F0003FD1FFF79FF9A56B002DBBD1019B002B90
:10430000D6D0002ED8D0FFF7B7F900F029FDFFF77F
:1043100091F994F844305BB2B3F1FF3FD1D094F8F7
:1043200045305BB2B3F1FF3FCFD0FFF7A5F901A94C
:1043300002A800F031FF0028D1D12046FFF70FFC82
:104340000028C6D0019904F1240000F09FFE204609
:10435000FFF75FFC00F0A6FD0028CAD14FF0E02374
:104360004FF08052C3F8042DBFF34F8FBFF36F8F10
:10437000BFE7002089E770B584B0019158B10446C9
:10438000036C8BB14FF0500383F31188BFF36F8F31
:10439000BFF34F8FFEE74FF0500383F31188BFF355
:1043A0006F8FBFF34F8FFEE701F008F8054650B955
:1043B000019B5BB14FF0500383F31188BFF36F8F04
:1043C000BFF34F8FFEE70026354655E0064653E023
:1043D000013BA36323683BB123694BB9FFF74CF959
:1043E0000126304604B070BD01F03AF9A060F3E751
:1043F00004F1100000F07EFE0028EFD04FF0E02323
:104400004FF08052C3F8042DBFF34F8FBFF36F8F6F
:10441000E4E746B14FF0500383F31188BFF36F8F89
:10442000BFF34F8FFEE7FFF727F9DAE702A800F0A6
:10443000A7FE01252AE0002384F8443032E000235F
:1044400084F8453034E0FFF7F5F8A06800F0C6FFC7
:104450000646FFF711F93BE02046FFF7DAFB00F0D4
:1044600021FD09E02046FFF7D4FB00F01BFD2046AC
:10447000FFF775FB002842D1FFF7DCF8A36B002B98
:10448000A6D1019B002BC4D0002DCFD0FFF7F4F8AC
:1044900000F066FCFFF7CEF894F844305BB2B3F15D
:1044A000FF3FC8D094F845305BB2B3F1FF3FC6D0B0
:1044B000FFF7E2F801A902A800F06EFE0028D1D1B2
:1044C0002046FFF74CFB0028C6D02368002BBAD04B
:1044D000019904F1240000F0D9FD2046FFF799FB73
:1044E00000F0E0FC0028C7D14FF0E0234FF08052ED
:1044F000C3F8042DBFF34F8FBFF36F8FBCE70EB926
:1045000000266EE7FFF796F82046FFF711FB0146FD
:10451000A06800F0F7FFFFF7AFF8F1E780B170B5E2
:104520000C460546866800F043FF864211D02146BE
:104530002846FFF720FF80B1EB680133EB600CE009
:104540004FF0500383F31188BFF36F8FBFF34F8F8A
:10455000FEE7EB680133EB60012070BD2DE9F84305
:10456000B0B10D4690460446D9B1FFF789F9EFF393
:1045700011874FF0500383F31188BFF36F8FBFF3A0
:104580004F8FA66BCEB9002087F31188BDE8F88362
:104590004FF0500383F31188BFF36F8FBFF34F8F3A
:1045A000FEE7036C002BE0D04FF0500383F311883B
:1045B000BFF36F8FBFF34F8FFEE794F844904FFA2D
:1045C00089F929462046FFF712FB731EA363B9F150
:1045D000FF3F06D009F101035BB284F844300120AB
:1045E000D2E723690BB90120CEE704F1100000F0F7
:1045F00081FD30B1B8F1000F05D00120C8F80000EE
:10460000C2E70120C0E70120BEE700000023072B1E
:104610000CD8074A52F833200AB10133F7E7044AAD
:1046200042F8331002EBC30250607047704700BF7E
:104630003C5400200023072B0FD8084A02EBC3028A
:104640005268824201D00133F5E7044A002142F862
:10465000331002EBC3025160704770473C54002096
:1046600038B110B50446FFF7E5FF94F846304BB17A
:1046700010BD4FF0500383F31188BFF36F8FBFF36A
:104680004F8FFEE72046FFF70FFAF1E770B50446BB
:104690000D461646FEF7CEFF94F844305BB2B3F1F8
:1046A000FF3F0DD094F845305BB2B3F1FF3F0BD024
:1046B000FEF7E2FFA36B5BB12046FFF7AAFA70BDDD
:1046C000002384F84430EDE7002384F84530EFE719
:1046D0003246294604F1240000F0F0FCECE7002308
:1046E00001E0013001330278A52AFAD0C3F38F002C
:1046F00070470000084B1B681B6823B9074B4FF03D
:10470000FF321A607047044B1B68DB68DB685A682D
:10471000024B1A60704700BFEC5400208454002004
:104720002DE9F04780460D4617469946089EDDF86C
:1047300024A00A9C9200A521206B09F081FD236B27
:1047400007F18042013A03EB820727F00707002DAB
:1047500061D04FF0000CBCF10F0F09D815F80C30E8
:1047600004EB0C0282F8343013B10CF1010CF2E7C7
:10477000002384F84330372E00D93726E662E664FA
:1047800000252565201DFEF7B0FE04F11800FEF798
:10479000ACFE2461C6F13806A6616462C4F87851A3
:1047A00084F87C514FF49072294604F1580009F0C6
:1047B00047FD1B4BE36503F168022266D033636655
:1047C00001220023C4E93C2343F20E33A4F8F8305D
:1047D0004AF6CD33A4F8FA3041F23423A4F8FC3081
:1047E0004EF26D63A4F8FE304DF6EC63A4F8003190
:1047F0000523A4F802310B23A4F804314A464146AC
:104800003846FEF7EBFE2060BAF1000F01D0CAF87F
:104810000040BDE8F087002384F83430ABE700BFE8
:10482000386B002038B5002407E004EB84029300C5
:104830000E481844FEF74EFE0134372CF5D90C4DC6
:104840002846FEF747FE0B4C2046FEF743FE0A487B
:10485000FEF740FE0948FEF73DFE0948FEF73AFE26
:10486000084B1D60084B1C6038BD00BF1855002068
:1048700004550020F0540020D4540020C0540020DF
:10488000A8540020EC540020E854002010B5044641
:10489000FEF7D0FE224A136801331360214B1B68D8
:1048A0005BB1214B1B686BB91E4B1B68DA6AE36A6C
:1048B0009A4207D81B4B1C6004E01A4B1C6013681B
:1048C000012B29D0194A1368013313606364E06A2D
:1048D000174B1B68984201D9154B186000EB8000FC
:1048E000211D144B03EB8000FEF702FEFEF7C4FE11
:1048F0000D4B1B687BB10B4B1B68DA6AE36A9A426B
:1049000009D24FF0E0234FF08052C3F8042DBFF3DB
:104910004F8FBFF36F8F10BDFFF784FFD2E700BF4B
:10492000A454002078590020985400208854002076
:104930009C5400201855002010B50446583009F04A
:104940007DFF94F87D3163B1012B11D0022B0ED085
:104950004FF0500383F31188BFF36F8FBFF34F8F76
:10496000FEE7206BFFF7A0F82046FFF79DF810BD8B
:104970002046FFF799F8FAE70F4B1B68D3B110B543
:10498000FEF758FE0D4BDB68DC68201DFEF7D4FDFA
:104990000B4A1368013B1360074A1368013B13601D
:1049A000FEF76AFE2046FFF7C7FF034B1B68002B8C
:1049B000E6D110BD704700BFBC540020C054002099
:1049C000A454002008B5FFF7D7FF074B1B68012B45
:1049D000F9D94FF0E0234FF08052C3F8042DBFF314
:1049E0004F8FBFF36F8FEEE71855002070B5044668
:1049F0000D46174B1E68174B18680430FEF79CFDD8
:104A0000B4F1FF3F0DD03444124B1B685C60A642EA
:104A100010D9114B18680F4B19680431FEF773FD5C
:104A200070BD002DEFD00B4B196804310B48FEF719
:104A30005FFDF5E70A4B1868064B19680431FEF76D
:104A400062FD084B1B68A342EAD9064B1C60E7E7EE
:104A5000A054002078590020E8540020A8540020D9
:104A6000EC5400208454002010B5044609F08CFF5B
:104A70002046FCF705FB02E02023235401300E28DA
:104A8000FAD900232354204410BD30B587B00B9CC5
:104A90008CB10C9DC5B14FF4C0750495049DB5F55E
:104AA000C07F1AD04FF0500383F31188BFF36F8F8C
:104AB000BFF34F8FFEE74FF0500383F31188BFF32E
:104AC0006F8FBFF34F8FFEE74FF0500383F31188D2
:104AD000BFF36F8FBFF34F8FFEE7049D0C9D2C63D8
:104AE000022485F87D4100240394029505AC0194CD
:104AF0000A9C0094FFF714FE0C98FFF7C7FE059878
:104B000007B030BD2DE9F04385B00746884614460E
:104B10001E469000FEF746FF10B381464FF4C0706A
:104B2000FEF740FF0546A8B1C0F83090002380F89A
:104B30007D31039302900D9B01930C9B00933346B0
:104B4000224641463846FFF7EBFD2846FFF79EFE1A
:104B5000012007E04846FEF7A7FF4FF0FF3001E0D5
:104B60004FF0FF3005B0BDE8F083000038B50446D3
:104B7000FEF760FD24B3251D2846FEF7DDFCA36A81
:104B80001BB104F11800FEF7D7FC1F4A136801336C
:104B900013601E4B1B68A34215D01D4A1368013BCE
:104BA00013602046FFF7C8FEFFF7A4FDFEF764FD83
:104BB000184B1B681BB1154B1B68A3420CD038BDAA
:104BC000124B1C68D7E729461348FEF791FC134A9D
:104BD000136801331360E9E7114B1B6843B14FF0D1
:104BE000500383F31188BFF36F8FBFF34F8FFEE73E
:104BF0004FF0E0234FF08052C3F8042DBFF34F8FE6
:104C0000BFF36F8FDBE700BF885400207859002086
:104C1000A454002098540020C0540020BC5400200C
:104C20007C540020F8B5D0B104461D4B1B6883426C
:104C30002DD0FEF7FFFC65691A4B1E681A4B1F68E2
:104C4000FEF71AFDB54224D0BD4224D0174B9D4239
:104C50000ED0174B9D4220D0BDB1012018E04FF07F
:104C6000500383F31188BFF36F8FBFF34F8FFEE7BD
:104C7000A36A0BB102200BE094F87C31DBB2012B6C
:104C800001D0032004E0022002E0042000E0002024
:104C9000F8BD0220FCE70220FAE70420F8E700BF95
:104CA00078590020EC540020E8540020A85400203B
:104CB000C054002010B588B000240594069407AABB
:104CC00006A905A8FEF7EEFB059B0293069B019340
:104CD00000942346079A1A491A48FFF7D6FE1A4B42
:104CE0001860E8B100F036FD01281AD14FF05003EA
:104CF00083F31188BFF36F8FBFF34F8F134B1B6884
:104D00005833134A1360134B4FF0FF321A60124BA3
:104D100001221A60114B00221A60FEF725FD03E004
:104D20000020B0F1FF3F01D008B010BD4FF050039C
:104D300083F31188BFF36F8FBFF34F8FFEE700BF80
:104D400074420108C54900088054002078590020A9
:104D5000F80300208454002098540020A054002020
:104D6000024A136801331360704700BF7C5400206F
:104D7000014B1868704700BFA054002008B5FEF72B
:104D80007FFD014B186808BDA0540020F8B53A4BD0
:104D90001B68002B69D1394B1D6801351D60C5B9F1
:104DA000374B1B681B6843B14FF0500383F31188E6
:104DB000BFF36F8FBFF34F8FFEE7314A1168314B5E
:104DC000186810601960304A136801331360FFF7E8
:104DD00091FC2E4B1B68AB423DD900272C4B1B6826
:104DE000DB6A03EB83039A002A4B9B58012B00D903
:104DF0000127294B1B68002B3CD001273AE00127F3
:104E00001F4B1B681B6843B31D4B1B68DB68DC68CA
:104E100063689D4226D3261D3046FEF78DFBA36AAC
:104E20001BB104F11800FEF787FBE36A1B4A126806
:104E3000934201D9194A136003EB83039A00314668
:104E400014481044FEF754FBE26A114B1B68DB6AFE
:104E50009A42D4D2D4E70027D2E70C4B4FF0FF326E
:104E60001A60BBE7094A1360B8E70D4A13680133BB
:104E7000136000273846F8BD7C540020A054002061
:104E8000EC540020E85400208C540020845400206E
:104E90007859002018550020905400209C54002080
:104EA0009454002038B5354B1B6843B94FF050037C
:104EB00083F31188BFF36F8FBFF34F8FFEE7FEF7C9
:104EC000B9FB2E4B1A68013A1A601B68002B4FD1B0
:104ED0002B4B1B680BB900244BE00024294B1B68AB
:104EE0001BB3284BDB68DC6804F11800FEF724FBD9
:104EF000251D2846FEF720FBE06A234B1B689842DD
:104F000001D9214B186000EB800029461F4B03EBB1
:104F10008000FEF7EDFAE26A1D4B1B68DB6A9A42DD
:104F2000DCD31C4B01221A60D8E70CB1FFF7E2FB7F
:104F3000194B1C6884B9174B1C68D4B14FF0E0239F
:104F40004FF08052C3F8042DBFF34F8FBFF36F8F24
:104F500001240EE0013C07D0FFF718FF0028F9D02C
:104F60000C4B01221A60F5E70B4B00221A60E2E7B6
:104F70000024FEF781FB204638BD00BF7C54002092
:104F8000A4540020D45400209C5400201855002024
:104F900078590020905400209454002010B5A8B1F6
:104FA0000446104B1B6843B14FF0500383F3118844
:104FB000BFF36F8FBFF34F8FFEE7FFF7D1FE0021E6
:104FC0002046FFF713FDFFF76DFF48B94FF0E023D0
:104FD0004FF08052C3F8042DBFF34F8FBFF36F8F94
:104FE00010BD00BF7C540020224B1B681BB1224B1C
:104FF00001221A607047204B00221A601F4B1B6869
:1050000003EB83018A001E498A585AB90BB1013B50
:10501000F6E74FF0500383F31188BFF36F8FBFF3B0
:105020004F8FFEE7084603EB83018A000244516874
:105030004968516003EB830C4FEA8C02083202444A
:1050400091420FD003EB830291000D4A0A4452684B
:10505000D1680C4A116009490B60136858330A4A39
:1050600013607047486862469100054A0A445060E0
:10507000E8E700BF7C540020905400209C5400209E
:105080001855002078590020F803002058B110B5B9
:105090000C46094A11681831FEF735FA01212046FD
:1050A000FFF7A4FC10BD4FF0500383F31188BFF34A
:1050B0006F8FBFF34F8FFEE77859002038B570B17E
:1050C0000D4614460A4A11681831FEF711FA0CB160
:1050D0004FF0FF3521462846FFF788FC38BD4FF0DA
:1050E000500383F31188BFF36F8FBFF34F8FFEE739
:1050F0007859002038B5C368DC6824B304F118057A
:105100002846FEF719FA184B1B682BBB251D2846AD
:10511000FEF712FAE06A154B1B68984201D9134B4F
:10512000186000EB80002946114B03EB8000FEF76E
:10513000DFF9E26A0F4B1B68DB6A9A4211D9012042
:105140000D4B186038BD4FF0500383F31188BFF347
:105150006F8FBFF34F8FFEE729460848FEF7C8F967
:10516000E7E70020EEE700BF7C5400209C540020BD
:10517000185500207859002090540020D454002065
:10518000034B1B680360034B1B684360704700BF01
:105190008C540020A0540020F8B5C8B10C46054638
:1051A000F9B1FEF747FA1B4B19686B68C81A2268F9
:1051B000B2F1FF3F26D0184E36682F68B74201D0B3
:1051C0008B4224D9824215D80023236001241AE09F
:1051D0004FF0500383F31188BFF36F8FBFF34F8FEE
:1051E000FEE74FF0500383F31188BFF36F8FBFF3D7
:1051F0004F8FFEE75B1A134423602846FFF7C0FF7A
:10520000002400E00024FEF737FA2046F8BD012410
:10521000F9E700BFA05400208C540020014B01226C
:105220001A6070479054002070B50C46164605462B
:10523000D0B1256005F134026260EA6A22612A6B0E
:10524000E2616A6CA260EA6C62610022A261052BD5
:1052500019D0124A1268AA4209D02373032B09D02D
:10526000B6B90023238470BD0C4A1568E1E700231A
:105270002373F5E7FFF774FDAB6A0BB102232373C9
:10528000FFF710FEECE72846FFF7CCFC2073E7E7BA
:10529000286BFFF724FA2084E5E700BF7859002047
:1052A0002DE9F0470C683CB307460D4690464B6825
:1052B0005B684B6001F108094B4504D06B68D3F87B
:1052C0000CA0002410E05B684B60F7E76B68DE68B9
:1052D00004EBC4014346012207EB81013046FFF78E
:1052E000A3FF0134B24507D06B68596869608945EE
:1052F000ECD14B686B60E9E72046BDE8F087000021
:10530000F8B507460C461646FFF72AFD224B1B68E8
:10531000A3423BD838240025013C05EBC50004EB33
:10532000840101221D4B03EB810107EB8000FFF795
:10533000B7FF0544002CEFD105EBC500184B1968E9
:10534000022207EB8000FFF7ABFF054405EBC50029
:10535000144B1968022207EB8000FFF7A1FF0544F8
:1053600005EBC5000422104907EB8000FFF798FF0A
:105370002C1804EBC40003220C4907EB8000FFF754
:105380008FFF04441EB10023336000E00024FFF7C8
:1053900089FD2046F8BD00BFA45400201855002008
:1053A000EC540020E8540020C0540020A8540020F1
:1053B000014B1868704700BF78590020054B1B68E7
:1053C00033B1054B1B680BB10020704702207047BA
:1053D00001207047985400207C54002000283ED0C3
:1053E00038B50446C36A204A1268D26A93422ED264
:1053F0008269002A05DB1C4A1268D26AC2F13802AF
:105400008261616903EB8303184A02EB83039942CB
:1054100005D0154B1B68DB6AE362012038BD251DF2
:105420002846FEF789F8104B1B68D86AE062104BDB
:105430001B68984201D90E4B186000EB800029468A
:105440000A4B03EB8000FEF753F80120E6E7C26C3D
:10545000054B1B68DB6A9A4203D30020DEE700207D
:1054600070470120DAE700BF785900201855002066
:105470009C54002000283BD038B504461E4B1B68C6
:10548000834208D04FF0500383F31188BFF36F8F2E
:10549000BFF34F8FFEE7036D43B94FF0500383F323
:1054A0001188BFF36F8FBFF34F8FFEE7013B03659A
:1054B000C16AC26C91421DD00BB1002038BD051DE0
:1054C0002846FEF739F8E06CE062C0F13803A361CA
:1054D0000A4B1B68984201D9084B186000EB80000A
:1054E0002946074B03EB8000FEF702F80120E5E7B1
:1054F000002070470020E1E7785900209C540020EC
:1055000018550020002846D038B50446036D43B92D
:105510004FF0500383F31188BFF36F8FBFF34F8FAA
:10552000FEE7C26C8A4200D20A46E16A914201D08B
:10553000012B00D038BD184B1B68A34222D0E26279
:10554000A369002B02DBC2F13802A261626901EBA0
:105550008101124B03EB81039A42EBD1251D2846B2
:10556000FDF7EAFFE06A0E4B1B68984201D90C4B2D
:10557000186000EB80002946084B03EB8000FDF724
:10558000B7FFD7E74FF0500383F31188BFF36F8F56
:10559000BFF34F8FFEE77047785900201855002061
:1055A0009C5400202DE9F04383B00646002303708D
:1055B000294B1C68186800EBC0008000FEF7F2F968
:1055C000002845D0804600222146FFF799FE074675
:1055D000002514E04FF0580961683046FFF744FA9F
:1055E00006462369228CA168019100924A461B4914
:1055F00008F038FC3046FBF743FD06440135BD4258
:1056000023D205EBC50408EB8404237B042B16D8B6
:1056100001A252F823F000BFD555000845560008F6
:105620002D56000833560008395600084FF042093D
:10563000D2E74FF05309CFE74FF04409CCE74FF0E2
:105640000009C9E74FF05209C6E74046FEF72CFAB9
:1056500003B0BDE8F08300BFA45400207C420108E1
:10566000054B1B6823B1044B1A68136D0133136596
:10567000014B1868704700BF78590020064B1A6824
:1056800013682BB90123036023B9D36818687047E6
:105690000023F8E7002070477C5A002008B54160DD
:1056A000006191420CD8D21A83699A4201D3012039
:1056B00008BD011D094B1868FDF725FF0020F7E71D
:1056C0009A4201D2994206D2011D054B1868FDF796
:1056D0001AFF0020ECE70120EAE700BF785A00201B
:1056E0007C5A002030B583B0FDF7A4FF114B1B6836
:1056F0001BB1FDF7C1FF03B030BD0F4D2846FDF7CC
:10570000E9FE0E4C2046FDF7E5FE0D4B1D600D4BEE
:105710001C60002300930C4B0C4A10210A20FEF75A
:1057200002FB044B18600028E3D00949FEF76EFF26
:10573000DFE700BF745A0020945A0020805A0020EE
:105740007C5A0020785A00207C590020CC59002037
:105750008C42010810B588B0FFF7C4FF124B1B68DC
:10576000CBB100240594069407AA06A905A8FDF765
:10577000A5FE059B0293069B0193022300932346FB
:10578000079A0A490A48FFF780F90A4B186010B1D6
:10579000012008B010BD4FF0500383F31188BFF310
:1057A0006F8FBFF34F8FFEE7745A002094420108B9
:1057B000B95A0008705A0020B8B19C4603461848F0
:1057C000006858B300B585B0009101920293052995
:1057D0001CDCFFF7F3FD022810D000231A466946AF
:1057E0000F480068FEF74EFB15E04FF0500383F3BF
:1057F0001188BFF36F8FBFF34F8FFEE70023069A28
:10580000694607480068FEF73DFB04E00023624656
:105810006946FEF741FC05B05DF804FB00207047C7
:10582000745A002070B582B01B4B1B681A6862B3B3
:10583000DB681E68DC68251D2846FDF77DFE236AAF
:105840002046984794F8283013F0040FECD0A36951
:1058500033449E4207D26360246129460E4B186888
:10586000FDF751FEE0E7002100910B46324620464D
:10587000FFF7A2FF0028D7D14FF0500383F3118820
:10588000BFF36F8FBFF34F8FFEE7044A10680249E2
:105890000860136002B070BD7C5A0020785A002066
:1058A00038B50546FFF764FA0446074B1B68834288
:1058B00005D800232B60044B1C60204638BDFFF741
:1058C000B1FF01232B60F6E76C5A002070B582B05F
:1058D00006460D4617490968C968CC68201DFDF7C2
:1058E0002BFE94F828C01CF0040F08D12CF0010CFA
:1058F00084F828C0236A2046984702B070BDA16989
:1059000033462A4631442046FFF7C8FE0028F1D02E
:10591000002100910B4632462046FFF74DFF00283C
:10592000E8D14FF0500383F31188BFF36F8FBFF3BB
:105930004F8FFEE77C5A002070B582B006460C46B9
:10594000FFF70EFA01A8FFF7ABFF019B33BB05463B
:10595000E4B9B04213D22246711B124B1868FEF70D
:1059600095FEFFF79FFAD8B94FF0E0234FF0805231
:10597000C3F8042DBFF34F8FBFF36F8F10E0FFF715
:1059800091FA29463046FFF7A1FF09E0064A12685E
:1059900012680AB90124DEE71C46DCE7FFF782FA49
:1059A00002B070BD745A0020785A002010B588B03B
:1059B00002E0049B002B0FDA002204A93D4B18687B
:1059C000FEF72AFC002873D0049B002BF1DA07991C
:1059D0000698059B9847ECE7069C636913B1201D68
:1059E000FDF7AAFD03A8FFF75BFF049B092BE3D893
:1059F000DFE803F00505053037500505303794F82A
:105A0000283043F0010384F82830059BA169024641
:105A100019442046FFF742FE0028CDD0236A2046D5
:105A2000984794F8283013F0040FC5D0A2690021DC
:105A300000910B46059802442046FFF7BDFE002862
:105A4000BAD14FF0500383F31188BFF36F8FBFF3C8
:105A50004F8FFEE794F8283023F0010384F82830B4
:105A6000AAE794F8283043F0010384F82830059918
:105A7000A16131B10346024601442046FFF70EFE04
:105A80009AE74FF0500383F31188BFF36F8FBFF392
:105A90004F8FFEE794F8283013F0020F04D023F064
:105AA000010384F8283087E72046FDF7FDFF83E7F0
:105AB00008B010BD745A002000B583B001A8FFF7EC
:105AC000DDFD0199FFF738FFFFF770FFF6E70000F3
:105AD00008B50B4B1A6842F400721A601A6842F457
:105AE00080621A601A6842F480721A60032000F023
:105AF00037FC0020FCF7BCFEFCF798FE002008BD38
:105B0000003C0240034A1168034B1B780B441360AE
